:020000040800F2
:10000000180A00209D0100088932000837310008D5
:100010008532000829090008A33500080000000007
:100020000000000000000000000000008D32000809
:100030007D090008000000008B3200088F320008A4
:10004000B7010008B7010008B7010008B7010008B0
:10005000B7010008B70100087F090008B7010008D0
:10006000B7010008B7010008B70100082D09000812
:10007000B7010008B7010008B7010008B701000880
:10008000B7010008B7010008B70100080000000030
:10009000000000000000000000000000B7010008A0
:1000A000B701000865330008B7010008B701000870
:1000B0006D3300080000000000000000B7010008D8
:1000C000B7010008B7010008B701000800000000F0
:1000D000B7010008B7010008B7010008B701000820
:1000E00081090008B70100080000000000000000BE
:1000F0000000000000000000000000000000000000
:10010000000000000000000000000000B70100082F
:100110000000000000000000B7010008000000001F
:1001200000000000000000000000000000000000CF
:1001300000000000000000000000000000000000BF
:10014000B7010008B701000800000000000000002F
:10015000000000000000000000000000000000009F
:10016000B7010008B701000800000000000000000F
:10017000000000000000000000000000000000007F
:1001800000000000B7010008DFF80CD000F062FAB0
:1001900000480047613B0008180A002006488047D5
:1001A00006480047FEE7FEE7FEE7FEE7FEE7FEE75C
:1001B000FEE7FEE7FEE7FEE7E932000889010008F6
:1001C0002DE9F05F0546002092469B46884606468C
:1001D000814640241BE0284641464746224600F01F
:1001E000BAF953465A46C01A914110D311461846DF
:1001F000224600F0A1F92D1A67EB01084F4622466E
:100200000120002100F098F917EB00094E41201E53
:10021000A4F10104DFDC484631462A464346BDE8E6
:10022000F09F40EA01039B0703D009E008C9121FB1
:1002300008C0042AFAD203E011F8013B00F8013BA0
:10024000521EF9D27047D2B201E000F8012B491ECC
:10025000FBD270470022F6E710B513460A46044663
:100260001946FFF7F0FF204610BD2DE9FE4F8046EE
:1002700081EA0300C00F0C46009021F0004123F0FA
:100280000045B8EB0200A94105D240462146904600
:100290001C460B46024623F00040104347D0270D72
:1002A000C7F30A00C3F30A510290401A0190402894
:1002B0006BDAC3F3130040F4801B0098924620B120
:1002C0000023D2EB030A63EB0B0B01985946C0F1F4
:1002D0004002504600F030F906460D465046594659
:1002E000019A00F048F910EB08006141002487EA08
:1002F000115284EAE7731A4340D0009A62B3019A1C
:10030000012A4FEA075215DC001B61EB02014FF096
:10031000004202EA0752CDE90042001C41F580117B
:1003200032462B4600F048F903B0BDE8F08F404656
:100330002146F9E7001B61EB0201001C41F5801327
:1003400000185B412018A2F5001747EB030140EAB3
:10035000D570B6196D4111E06D084FEA360645EAD1
:10036000C0754FEA0752001B61EB0201001C41F50A
:10037000801149084FEA30000019514132462B469E
:1003800003B0BDE8F04F00F008B90098012240002A
:100390000023D0EB020263EBE073009821464FEAA2
:1003A000E074B8EB000061EB0401E9E783F000437F
:1003B0005BE781F0004158E72DE9F04D81EA030445
:1003C00004F0004B21F0004514464FF0000A23F0E2
:1003D000004150EA050220D054EA01021DD0C5F3C5
:1003E0000A570246C5F31303C1F31300C1F30A56BB
:1003F00040F4801543F48013A7EB0608101BD64683
:1004000008F2FD3873EB050002D308F1010801E0A2
:1004100092185B41B8F1000F03DA00200146BDE8F5
:10042000F08D00204FF48011064684460EE0171B25
:1004300073EB050705D3121B63EB050306434CEA78
:10044000010C49084FEA300092185B4150EA01075D
:10045000EDD152EA030012D082EA040083EA0501DA
:10046000084305D0101BAB4106D20122002306E051
:1004700000224FF0004302E06FF0010253101AEB2C
:1004800006004CEB085110EB0A0041EB0B01BDE8F4
:10049000F04D00F082B80EB540F2334102910021D8
:1004A000CDE900110A460B4600F086F803B000BD06
:1004B000C1F30A5210B5C1F3130140F2FF3341F406
:1004C00080119A4201DA002010BD40F233439A4273
:1004D000A2F2334203DC524200F03DF810BD9040DE
:1004E00010BD00F0004230F000400AD0C10D01F50F
:1004F0006071C0F3160042EA0151C208400711437F
:10050000704700200146704730B5041E71F10004A9
:1005100004DB4FF00044404264EB0101141E73F110
:10052000000405DB1C464FF00043524263EB04031A
:10053000994208BF904230BD202A04DB203A00FADD
:1005400002F1002070479140C2F1200320FA03F32A
:10055000194390407047202A04DB203A21FA02F028
:100560000021704721FA02F3D040C2F120029140ED
:10057000084319467047202A06DBCB17203A41FA78
:1005800002F043EAE07306E041FA02F3D040C2F120
:100590002002914008431946704710B5141E73F1AC
:1005A000000408DA401C41F1000192185B411A4333
:1005B00001D120F0010010BD2DE9F04D92469B467F
:1005C00011B1B1FA81F202E0B0FA80F22032904625
:1005D000FFF7B2FF04460F4640EA0A0041EA0B016A
:1005E00053465A46084313D0114653EA010019D026
:1005F000C8F140025046FFF7AEFF05460E46504692
:1006000059464246FFF798FF084305D0012004E011
:1006100020463946BDE8F08D0020054346EAE076E5
:100620002C4337430A986305E40AA0EB0800002234
:10063000FD0A44EA47540A3002D500200146E9E7A2
:10064000010510196941DDE9084500196941BDE856
:10065000F04DA2E7064C074D06E0E06840F00103CC
:1006600094E8070098471034AC42F6D3FFF790FDAA
:1006700068460008884600082DE9F04104460D460A
:100680000027B84600262068806800F00C0008B1FA
:10069000012000E00020002870D02068C06800F031
:1006A0000070B0F1007F1FD1607E01281CD1207E38
:1006B000012819D10C250EE0314886420AD3206C5E
:1006C00040F010002064606C40F001006064012084
:1006D000BDE8F081761C20680068C0F38010002817
:1006E000EAD0402021680860602D10D02068806822
:1006F00000F0040004280AD12068806800F002009D
:1007000028B92068806840F01000216888600C2DAE
:1007100010D02068806800F0080008280AD12068FE
:10072000806800F0020028B92068806840F020004E
:1007300021688860602D03D06C2D03D10C2703E065
:10074000082701E0042700BF00BF01F009FA804636
:100750000FE001F005FAA0EB08000B2809D9206C86
:1007600040F010002064606C40F0010060640120E3
:10077000AEE72068806838400028EAD10020A7E76B
:100780000094090070B505466C6A206C00F05000BA
:10079000D0B9206C40F4007020642068C06800F478
:1007A000406068B9607E58B9206C20F48070206485
:1007B000206C00F4805018B9206C40F001002064D7
:1007C000204600F049FB03E0A06B016B28468847F8
:1007D00070BD70B505466C6A206C40F04000206426
:1007E000606C40F004006064204600F02BFC70BD9B
:1007F00070B50446656A284600F02FFB70BD70B5E1
:10080000044600252068806800F00300012806D116
:100810002068006800F0010008B1012000E000201D
:1008200080B32068806800F00D00012800D100E04E
:10083000002050B100BF2068806840F002002168AD
:10084000886003202168086009E0206C40F01000F7
:100850002064606C40F001006064012070BD01F014
:100860007FF905460FE001F07BF9401B02280AD909
:10087000206C40F010002064606C40F00100606467
:100880000120EBE705E02068806800F00100002807
:10089000E9D10020E2E7000070B504460025206899
:1008A000806800F00300012806D12068006800F08D
:1008B000010008B1012000E0002088BB20688068AA
:1008C0001849084008B9012000E0002048B9206C10
:1008D00040F010002064606C40F001006064012072
:1008E00070BD2068806840F001002168886001F0D8
:1008F00037F905460EE001F033F9401B022809D90B
:10090000206C40F010002064606C40F001006064D6
:100910000120E5E72068006800F001000028EAD027
:100920000020DDE73F00008000BFFEE710B502F0C9
:1009300067FE10BD054A0168891A1422B1FBF2F165
:100940008900016401490839C16370470800024009
:1009500030B590F840500124AC40C56B6C60046821
:1009600063604468102C04D10468A2600468E160EC
:1009700003E00468A1600468E26030BD704770471E
:1009800010B50748006800F40040B0F5004F06D1EC
:100990004FF4004002490860002003F033FA10BD14
:1009A0001404014070472DE9F04104460E4600272B
:1009B00000BF94F83C00012802D10220BDE8F0817C
:1009C000012084F83C0000BF2046FFF718FF0746CF
:1009D000C7BB012020642068806820F08040216827
:1009E0008860012E05D12068806840F08040216831
:1009F00088602068806840F000402168886001F0CD
:100A0000AFF8054611E001F0ABF8401B0A280CD9FD
:100A1000206C20F0020040F01000206400BF002095
:100A200084F83C0000BF0120C8E72068806800F01F
:100A30000040B0F1004FE6D0206C20F0020040F002
:100A40000100206400BF002084F83C0000BF38464D
:100A5000B4E70000F0B595B00246002500200090F4
:100A6000C868012800D000E000BF00BF92F83C0039
:100A7000012802D1022015B0F0BD012082F83C000F
:100A800000BF10688068C0F38000002879D14868F2
:100A9000052812D21068006B0E7906EB4606770027
:100AA0001F26BE40B0430F7907EB47077F000E6853
:100AB000BE4030431668306343E048680A2814D2C9
:100AC0001068406B0E79761F06EB460677001F26EE
:100AD000BE40B0430F797F1F07EB47077F000E68CA
:100AE000BE403043166870632BE048680F2814D26C
:100AF0001068806B0E790A3E06EB460677001F26CB
:100B0000BE40B0430F790A3F07EB47077F000E68EE
:100B1000BE4030431668B06313E01068C06B0E79B6
:100B20000F3E06EB460677001F26BE40B0430F7906
:100B30000F3F07EB47077F000E68BE403043166843
:100B4000F0631068806800F00C0008B1012000E03C
:100B50000020002870D108680A2813D31068806923
:100B60000E780A3E06EB46070726BE40B0430F78D4
:100B70000A3F07EB47078E68BE4030431668B061F6
:100B800010E055E1106840690E7806EB460707262D
:100B9000BE40B0430F7807EB47078E68BE40304336
:100BA0001668706148691668F668C6F3C106760073
:100BB00000FA06F40869012806D0022812D003289A
:100BC0001ED0042839D129E01068006E9E4E3040B6
:100BD0000E784FF0004747EA866626433043166892
:100BE000306663E01068406E974E30400E784FF0EC
:100BF000004747EA8666264330431668706655E02C
:100C00001068806E904E30400E784FF0004747EAF3
:100C10008666264330431668B06647E01068C06EAB
:100C2000894E30400E784FF0004747EA86662643EB
:100C300030431668F06639E039E01068006E00F065
:100C4000F8400E78B0EB866F05D11068006E20F08A
:100C50000040166830661068406E00F0F8400E786C
:100C6000B0EB866F05D11068406E20F0004016682A
:100C700070661068806E00F0F8400E78B0EB866FFA
:100C800005D11068806E20F000401668B0661068CC
:100C9000C06E00F0F8400E78B0EB866F05D110689A
:100CA000C06E20F000401668F06600BF00BF1068FC
:100CB000806800F00300012806D11068006800F089
:100CC000010008B1012000E00020002876D1C868AA
:100CD00001280AD01068D0F8B0000F780126BE4075
:100CE000B0431668C6F8B00032E01068D0F8B00023
:100CF0000F780126BE4030431668C6F8B000086879
:100D00000A2813D3106886690878093800EB400771
:100D10000720B84026EA00000E78093E06EB46069A
:100D20008F68B74038431668B06111E010684069B9
:100D30000E78761C06EB46070726BE40B0430F78B8
:100D40007F1C07EB47078E68BE4030431668706112
:100D50003E4B0868102803D1986800F4000068B181
:100D60000868112803D1986800F0807030B10868D5
:100D7000122862D1986800F48000F8B90020019030
:100D80001068806800F00300012806D11068006830
:100D900000F0010008B1012000E00020C8BB01986C
:100DA00078B10198806800F00300012807D101980C
:100DB000006800F0010010B1012001E031E00020E6
:100DC00038BB0868102818D11068B0F1A04F14D1B2
:100DD000986840F4000098601D4800681D4EB0FB04
:100DE000F6F000EB80004000009002E00098401E0A
:100DF000009000980028F9D11FE00868112809D157
:100E00001068B0F1A04F05D1986840F080709860EC
:100E100013E007E0086812280FD1986840F48000BA
:100E200098600AE0106C40F020001064012504E096
:100E3000106C40F020001064012500BF002082F8F3
:100E40003C0000BF284616E600F0FF830003005078
:100E50000400002040420F007047704770B594B006
:100E60000446002514B9012014B070BD206C40F078
:100E7000020020646C212046FFF7FEFB054675B991
:100E80002068C06840F400102168C8602046FFF761
:100E9000B6FC054615B90120206400E00125002DAF
:100EA0007ED1206840686FF30A002168486040F2F4
:100EB000FF70216808602068806820F0E0402168A9
:100EC00088602068806840F0005021688860206851
:100ED000C068554908402168C86020684069534986
:100EE0000840216848612068806900F078402168E6
:100EF00088612068006A00F0F0202168086220689C
:100F0000406A00F0FF20216848622068806A00F093
:100F1000FF20216888622068006B454908402168ED
:100F200008632068406B42491039084021684863D3
:100F30002068806B3E49103908402168886320682A
:100F4000C06B40F2DF7188432168C8632068006E7F
:100F500038490840216808662068406E35490840D5
:100F6000216848662068806E32490840216888669A
:100F70002068C06E2F4908402168C8662068D0F8F4
:100F8000A0002D4908402168C1F8A0002068D0F8D1
:100F9000A400294908402168C1F8A400206800E0A5
:100FA0003BE0D0F8B000244908402168C1F8B00007
:100FB0002068D0F8B40020F07F102168C1F8B40098
:100FC0001E4E002000902068806800F00300012879
:100FD00006D12068006800F0010008B1012000E09F
:100FE0000020A0B9009870B10098806800F003005C
:100FF000012806D10098006800F0010008B1012026
:1010000000E0002018B9B0680D490840B0602046E3
:1010100000F03CF900206064206400BF002084F8E8
:101020003C0000BF28461FE704800080070000C086
:10103000300882E000F0FF030100F8FF00030050D9
:10104000E0103CFE70470000F0B595B00446002665
:1010500000250020009014B9012015B0F0BD2069D2
:1010600018B12020005D00B100BF206C00F010001E
:10107000002853D1206C98BB002060640021E164FB
:10108000A06484F83C00204600F001F920688068E4
:1010900000F0805020BB2046FFF7B1FB0646206CD5
:1010A00000F01000E0B9DEB9206C20F4885040F068
:1010B000020020642068806820F040502168886029
:1010C0002068806840F08050216888606B48006824
:1010D0006B49B0FBF1F000EB80004000009003E0B2
:1010E00005E00098401E009000980028F9D1206883
:1010F000806800F0805030B12068806800F00050B7
:10110000B0F1005F0AD1206C20F0020040F0100026
:101110002064606C40F0010060640126206C00F0E7
:10112000100000287ED1002EFCD120688068C0F31A
:1011300080000028F6D1206C20F4807040F002007E
:101140002064504F002001902068806800F0030068
:10115000012806D12068006800F0010008B10120D4
:1011600000E00020B0B9019870B10198806800F0EB
:101170000300012806D10198006800F0010008B1C1
:10118000012000E0002028B9B86820F440306168F0
:101190000843B860606B012802D04FF4805100E032
:1011A0000021607E41EA4030E1680843A1680843BD
:1011B00005432020005D012813D1607E38B9A08C42
:1011C000401E4FF4803141EA4040054309E0206C65
:1011D00020F0020040F020002064606C40F001002C
:1011E0006064A06A012803D0D4E90A0108430543DA
:1011F0002068806800F00C0008B1012000E00020A9
:1012000068B92068C06844F2020188432168C86058
:10121000207E810394F8300041EA400005432068B5
:10122000C06800E020E01849084028432168C860F1
:101230002069012809D12068006B20F00F00E169C6
:10124000491E08432168086305E02068006B20F010
:101250000F002168086300206064206C20F0020009
:1012600040F00100206406E0206C20F0020040F015
:101270001000206401263046EFE600000400002044
:1012800040420F000003005007C0F0FF7047704756
:101290002DE9F04104460D46164600272068806877
:1012A000C0F38000002865D100BF94F83C000128FD
:1012B00002D10220BDE8F081012084F83C0000BF8B
:1012C0002046FFF7E9FA0746002F4ED1206C40F682
:1012D0000161884340F480702064206C20F4801009
:1012E00020642068C06800F0007028B1206C20F4F1
:1012F000005040F480502064206C00F48050B0F521
:10130000805F04D1606C20F00600606401E0002082
:10131000606400BF002084F83C0000BF1748A16B48
:1013200088621748A16BC8621648A16B08631C202D
:10133000216808602068406840F01000216848601B
:101340002068C06840F001002168C860226802F18E
:10135000400133462A46A06B00F0C7FA2068806837
:1013600040F004002168886005E000BF002084F898
:101370003C0000E0022738469CE700008507000893
:10138000F1070008D307000870B50446002500BF28
:1013900094F83C00012801D1022070BD012084F89E
:1013A0003C0000BF6C212046FFF766F9054625BBCF
:1013B0002068C06820F001002168C860A06B00F0C0
:1013C00014FA05461DB1206C40F0400020642068EE
:1013D000406820F010002168486025B92046FFF7DA
:1013E0000EFA054602E02046FFF709FA2DB9206CF7
:1013F00020F4885040F00100206400BF002084F8F1
:101400003C0000BF2846C8E738B50446002524B193
:1014100094F8290000F0100008B1012554E0206A7A
:1014200000B100BF00BF2948806940F00100274992
:1014300088610846806900F00100009000BF00BF8D
:10144000204600F045F894F8290010B9002084F8EF
:1014500028006068606000BF00200090206800687D
:101460000090009820F07000616808430090009898
:1014700020F00200A16808430090009820F440206A
:10148000A16908430090009820F47050A18901F4EC
:10149000705108430090009820F4004021690843EF
:1014A000009000986169084300900098E169084342
:1014B00000900098216A0843009000982168086015
:1014C00000BF012084F82900284638BD00100240E2
:1014D00010B586B00446142101A8FEF7BBFE1749DB
:1014E0002068884227D100BF1548406940F4003089
:1014F000134948610846406900F40030009000BF7D
:1015000000BF0420019002200290002003900320DD
:1015100004900820059001A94FF0904000F034FAA3
:1015200090200190032002900020039001A94FF029
:10153000904000F029FA06B010BD000020000140E4
:101540000010024010B502460020002122B192F89E
:10155000293003F010030BB1012090E092F82930FC
:10156000012B6FD1464C1368A34201D15B0407E005
:10157000434C08341368A34201D1DB0600E0012389
:10158000194692F8243003F03003002B6CD092F807
:10159000243003F0100383B101F001032BB1394B68
:1015A0001B680B43374C236017E0364B203B1B680E
:1015B0000B43344C203C23600FE001F001032BB1BE
:1015C000304B1B688B432F4C236006E02D4B203B98
:1015D0001B688B432B4C203C236092F8243003F093
:1015E000200393B101F001033BB1264B1B1D1B6887
:1015F0000B43244C241D236019E0224B1C3B1B6829
:101600000B43204C1C3C236011E001F001033BB173
:101610001C4B1B1D1B688B431A4C241D236006E0CA
:10162000184B1C3B1B688B43164C1C3C236001F081
:10163000010343B1134B1B1F1B680B43114C241FA9
:10164000236007E01AE00F4B243B1B680B430D4C53
:10165000243C236001F001031BB10A4B0C331960D9
:1016600002E0084B143B196013681B6843F0010348
:1016700014682360022382F8293000E0012010BDA5
:10168000200001402804014070B5034600240025D5
:1016900000BF5879012801D1022070BD0120587186
:1016A00000BF022018711868046840F6FE70904070
:1016B0008443D1E9000640EA060505FA02F0044336
:1016C0001868046018680668C0209040864318684F
:1016D00006600120187100BF0020587100BF00BFD4
:1016E000DBE710B504460CB9012010BD207920B904
:1016F00000206071204600F009F8022020710020CF
:101700002061012020710020EFE7000010B586B0B5
:101710000446142101A8FEF79DFD16492068884261
:1017200025D100BF1448C06940F000501249C8617B
:101730000846C06900F00050009000BF00BF00BF25
:101740000846406940F4003048610846406900F4AA
:101750000030009000BF00BF1020019003200290D5
:101760000020039001A94FF0904000F00DF906B061
:1017700010BD0000007400400010024038B504465F
:10178000002000902068009021B902F10800009D1F
:101790002844009000980360002038BD024600BF36
:1017A0005079012801D1022070470120507100BFFB
:1017B000022010711068006801238B4018431368E1
:1017C00018601068006800F03C003C2805D11068E3
:1017D000406840F00100136858600120107100BF9C
:1017E0000020507100BF00BFDEE7014691F82100E4
:1017F000022808D00420886300BF002081F8200060
:1018000000BF012070470868006820F00E000A68D9
:1018100010600868006820F001000A68106091F804
:10182000402001209040CA6B5060012081F82100C7
:1018300000BF002081F8200000BF00BFE2E710B524
:1018400004460CB9012010BD2068006820F001009A
:1018500021680860002021680860216848602168CC
:1018600088602168C8602046FFF764F894F840104B
:1018700001208840E16B48600020A062E0622063A4
:101880006063A06384F8210000BF84F8200000BFDB
:1018900000BFD8E770B5044600250CB9012070BD23
:1018A000022084F821002068056843F6F070854323
:1018B000D4E901010843E1680843216908436169EB
:1018C0000843A1690843E1690843054320680560AE
:1018D0002046FFF72FF80020A063012084F82100A4
:1018E000002084F8200000BFD9E72DE9F04104462C
:1018F0000D4616461F464FF0000800BF94F8200022
:10190000012802D10220BDE8F081012084F82000E6
:1019100000BF94F8210001282CD1022084F8210076
:101920000020A0632068006820F0010021680860A2
:101930003B46324629462046FFF70AF8E06A30B1B6
:101940002068006840F00E00216808600BE0206805
:10195000006840F00A00216808602068006820F0F4
:101960000400216808602068006840F001002168D8
:10197000086006E000BF002084F8200000BF4FF0A0
:1019800002084046BFE7000078B503460022C6E0E3
:10199000012696400D6805EA0604002C72D04D68B9
:1019A000022D02D04D68122D13D1D60803F1200567
:1019B00055F826005507EE0E0F25B540A8435607EB
:1019C000F60E0D69B5402843D60803F1200545F809
:1019D0002600186856000325B540A8430D7905F088
:1019E00003055600B540284318604D68012D08D006
:1019F0004D68022D05D04D68112D02D04D68122D75
:101A000013D1986856000325B540A8435600CD6809
:101A1000B54028439860586801259540A8430D7942
:101A2000C5F30015954028435860D8685600032533
:101A3000B540A84356008D68B5402843D8604D682E
:101A400005F08055B5F1805F68D100BF374DAD69B5
:101A500045F00105354EB5613546AD6905F0010526
:101A6000009500BF00BF4FEAB635960855F826002E
:101A700095072E0F0F25B540A843B3F1904F02D123
:101A8000002510E04AE02A4DAB4201D101250AE0D1
:101A9000284DAB4201D1022505E0274DAB4201D1D3
:101AA000032500E005259607360FB5402843234D52
:101AB000960845F82600224D2868A0434D6805F495
:101AC0008035B5F5803F00D120431D4D28602D1D88
:101AD0002868A0434D6805F40035B5F5003F00D1F6
:101AE0002043174D2D1D28602D1D2868A0434D68EB
:101AF00005F48015B5F5801F00D12043104D083541
:101B000028602D1D2868A0434D6805F40015B5F523
:101B1000001F00D120430A4D0C352860521C0D686F
:101B2000D540002D7FF434AF78BD00000010024096
:101B30000004004800080048000C0048080001406C
:101B400000040140024613690B400BB1012000E084
:101B5000002070470AB1816100E081627047000097
:101B600001480068704700000800002070B5044676
:101B70000CB9012070BD4CF6CC402168086045F2DC
:101B8000555021680860D4E9001048602168A068B9
:101B90008860FFF7E5FF054606E0FFF7E1FF401B21
:101BA000302801D90320E5E72068C0680028F4D177
:101BB00020680169E068814203D02168E06808611B
:101BC00003E04AF6AA20216808600020D2E7014617
:101BD0004AF6AA200A6810600020704710B508482D
:101BE000006840F0100006490860032000F080F80B
:101BF0000F2000F007F800F02BF8002010BD0000C7
:101C00000020024070B504460E4800784FF47A7107
:101C1000B1FBF0F00C490968B1FBF0F5284600F083
:101C200035FF08B1012070BD102C07D200222146DB
:101C3000501E00F01EF80548046001E00120F2E7A4
:101C40000020F0E710000020040000200C0000201D
:101C5000704701460846002809DB00F01F030122F7
:101C60009A4043099B0003F1E023C3F8002100BF21
:101C700070472DE9F05F80460D461646002701F0BB
:101C800093FC074639462A46334601F00700C0F167
:101C9000070ABAF1040F02D94FF0040A01E0C0F1BB
:101CA000070AD14600F1040ABAF1070F02D24FF039
:101CB000000A01E0A0F1030AD4464FF0010A0AFA33
:101CC00009FAAAF1010A0AEA020A0AFA0CFA4FF022
:101CD000010B0BFA0CFBABF1010B0BEA030B4AEA0D
:101CE0000B042146404601F067FCBDE8F09F000070
:101CF00000BF00F00702064B19684FF6FF031940BA
:101D0000044B0B4343EA0221014B196000BF7047AB
:101D10000CED00E00000FA0570B504460D46002603
:101D20000CB9012070BDA248006800F00700A8426D
:101D30000ED29F48006820F0070028439C490860A5
:101D40000846006800F00700A84201D00120E9E73A
:101D5000207800F00200022807D19648406820F061
:101D6000F000A168084393494860207800F0010022
:101D700000287CD0606801283BD12020010391FA23
:101D8000A1F1B1FA81F108430121B1EB601F02D149
:101D9000884800681DE02020010391FAA1F1B1FA02
:101DA00081F108430221B1EB601F02D18148006A32
:101DB0000FE02020010391FAA1F1B1FA81F108436B
:101DC0000421B1EB601F02D17A48406801E07948F4
:101DD000406A20210A0392FAA2F2B2FA82F2114377
:101DE00001F01F0201219140084000287CD1012010
:101DF00098E7606802283BD12020010591FAA1F103
:101E0000B1FA81F108430121B1EB601F02D16948A9
:101E100000681DE02020010591FAA1F1B1FA81F1DD
:101E200008430221B1EB601F02D16248006A0FE053
:101E30002020010591FAA1F1B1FA81F108430421B2
:101E4000B1EB601F02D15B48406801E05948406A2D
:101E500020210A0592FAA2F2B2FA82F2114301F0AD
:101E60001F02012191400840E8BB01205AE758E0D9
:101E70002020022191FAA1F1B1FA81F10843012158
:101E8000B1EB601F02D14B4800681DE02020022109
:101E900091FAA1F1B1FA81F108430221B1EB601F7F
:101EA00002D14448006A0FE02020022191FAA1F1FA
:101EB000B1FA81F108430421B1EB601F02D13D4822
:101EC000406801E03B48406A2021022292FAA2F2D7
:101ED000B2FA82F2114301F01F0201219140084041
:101EE00008B901201EE7FFE73248406820F00300F0
:101EF000616808432F494860FFF732FE064608E054
:101F0000FFF72EFE801B41F28831884201D9032061
:101F100008E72848406800F00C006168B0EB810FCA
:101F2000EED12348006800F00700A8420ED92048EF
:101F3000006820F0070028431D4908600846006833
:101F400000F00700A84201D00120EBE6207800F065
:101F50000400042807D11748406820F4E060E168D5
:101F6000084314494860207800F00800082808D188
:101F70001048406820F46050216940EAC1000D49D2
:101F8000486000F01FF80B49496801F0F001F022A9
:101F900092FAA2F2B2FA82F2D140074A515CC840EA
:101FA0000649086006480068FFF72CFE0020B9E6E5
:101FB00000200240001002403046000804000020CB
:101FC0000C0000202DE9F041002400250027002608
:101FD000A0461F48446804F00C0078B3042802D0DF
:101FE00008282CD102E0DFF86C802CE004F470109B
:101FF0004FF4701191FAA1F1B1FA81F1C84016497C
:102000000E5C1348C06A00F00F000F2191FAA1F195
:10201000B1FA81F1C84011490D5C04F4803040B13F
:102020002A4600230B481946FEF7CAF8A0FB0671A2
:1020300002E00B48A0FB0671B84604E000E000BFD8
:10204000DFF8208000BF00BF4046BDE8F0810000FF
:102050000010024000366E0148460008584600084D
:1020600000093D0000127A00F8B504460CB90120C1
:10207000F8BD207800F0010000287BD0FA484068C5
:1020800000F00C0004280CD0F748406800F00C0069
:10209000082845D1F448406800F48030B0F5803F0E
:1020A0003ED12020010391FAA1F1B1FA81F1084358
:1020B0000121B1EB601F02D1EB4800681DE0202038
:1020C000010391FAA1F1B1FA81F108430221B1EBC8
:1020D000601F02D1E448006A0FE02020010391FA5A
:1020E000A1F1B1FA81F108430421B1EB601F02D1E3
:1020F000DD48406801E0DC48406A20210A0392FA8A
:10210000A2F2B2FA82F2114301F01F0201219140C2
:1021100008400028B1D0606800282BD10120A7E733
:1021200000BF6068B0F5803F06D1CF48006840F43A
:102130008030CD49086029E0606858B9CA48006815
:1021400020F48030C84908600846006820F48020E8
:1021500008601BE06068B0F5A02F0CD1C248006891
:1021600040F48020C04908600846006840F4803090
:1021700008600BE0A1E0BC48006820F48030BA4958
:1021800008600846006820F48020086000BFB64858
:10219000C06A20F00F00A1680843B349C8626068B4
:1021A000A0B3FFF7DDFC054606E0FFF7D9FC401BB6
:1021B000642801D903205BE72020010391FAA1F1F3
:1021C000B1FA81F108430121B1EB601F02D1A648A9
:1021D00000681EE02020010391FAA1F1B1FA81F11B
:1021E00008430221B1EB601F02D19F48006A10E052
:1021F0002020010391FAA1F1B1FA81F108430421F1
:10220000B1EB601F03D19848406802E010E09648A7
:10221000406A20210A0392FAA2F2B2FA82F2114332
:1022200001F01F020121914008400028BDD044E088
:10223000FFF796FC054606E0FFF792FC401B64287A
:1022400001D9032014E72020010391FAA1F1B1FA8A
:1022500081F108430121B1EB601F02D1824800687F
:102260001DE02020010391FAA1F1B1FA81F10843A8
:102270000221B1EB601F02D17B48006A0FE02020F1
:10228000010391FAA1F1B1FA81F108430421B1EB04
:10229000601F02D17448406801E07348406A202101
:1022A0000A0392FAA2F2B2FA82F2114301F01F027B
:1022B0000121914008400028BED1207800F00200A2
:1022C00002285CD16848406800F00C0050B16648B4
:1022D000406800F00C00082852D16348406800F4C0
:1022E0008030E8BB2020022191FAA1F1B1FA81F1FE
:1022F00008430121B1EB601F02D15B4800681DE07B
:102300002020022191FAA1F1B1FA81F108430221C2
:10231000B1EB601F02D15448006A0FE02020022177
:1023200091FAA1F1B1FA81F108430421B1EB601FE8
:1023300002D14D48406801E04B48406A202102220A
:1023400092FAA2F2B2FA82F2114301F01F020121C5
:102350009140084028B12069012802D0012087E679
:102360000EE04148006820F0F800F82292FAA2F24C
:10237000B2FA82F26169914008433B490860B1E0DA
:10238000206970B3012191FAA1F0B0FA80F0374AC8
:1023900042F82010FFF7E4FB054606E0FFF7E0FBFC
:1023A000401B022801D9032062E62020022191FA75
:1023B000A1F1B1FA81F108430121B1EB601F02D113
:1023C000294800681EE02020022191FAA1F1B1FA0B
:1023D00081F108430221B1EB601F03D12248006A5A
:1023E00010E02CE02020022191FAA1F1B1FA81F154
:1023F00008430421B1EB601F02D11B48406801E093
:102400001948406A2021022292FAA2F2B2FA82F21C
:10241000114301F01F020121914008400028BDD066
:102420001148006820F0F800F82292FAA2F2B2FAFD
:1024300082F26169914008430B49086052E0002034
:10244000012191FAA1F1B1FA81F1084A42F8210083
:10245000FFF786FB05460BE0FFF782FB401B0228D7
:1024600006D9032004E600000010024000004242AA
:102470002020022191FAA1F1B1FA81F10843012152
:10248000B1EB601F02D1FB4800681DE02020022153
:1024900091FAA1F1B1FA81F108430221B1EB601F79
:1024A00002D1F448006A0FE02020022191FAA1F144
:1024B000B1FA81F108430421B1EB601F02D1ED486C
:1024C000406801E0EB48406A2021022292FAA2F221
:1024D000B2FA82F2114301F01F020121914008403B
:1024E0000028B9D1207800F00800082851D1A0694F
:1024F00080B3012191FAA1F0B0FA80F0DE4A02EB3C
:102500008000C0F88014FFF72BFB054606E0FFF7BC
:1025100027FB401B022801D90320A9E560200221E6
:1025200091FAA1F1B1FA81F108430121B1EB601FE9
:1025300002D1D04800681EE06020022191FAA1F18A
:10254000B1FA81F108430221B1EB601F03D1C94800
:10255000006A10E01EE06020022191FAA1F1B1FAB8
:1025600081F108430421B1EB601F02D1C1484068EA
:1025700001E0C048406A6021022292FAA2F2B2FA57
:1025800082F2114301F01F0201219140084000280E
:10259000BDD04FE00020012191FAA1F1B1FA81F103
:1025A000B54A02EB8101C1F88004FFF7D9FA05466C
:1025B00006E0FFF7D5FA401B022801D9032057E5B2
:1025C0006020022191FAA1F1B1FA81F108430121C1
:1025D000B1EB601F02D1A74800681DE06020022116
:1025E00091FAA1F1B1FA81F108430221B1EB601F28
:1025F00002D1A048006A0FE06020022191FAA1F107
:10260000B1FA81F108430421B1EB601F02D199486E
:10261000406801E09748406A6021022292FAA2F2E3
:10262000B2FA82F2114301F01F02012191400840E9
:102630000028BED1207800F00400042873D10027C0
:102640008C48C06900F0805070B900BF8948C069EB
:1026500040F080508749C8610846C06900F080504A
:10266000009000BF00BF01278448006800F480701C
:10267000B0B98248006840F4807080490860FFF774
:102680006FFA054606E0FFF76BFA401B642801D994
:102690000320EDE47948006800F480700028F2D04F
:1026A00000BFE068012806D17248006A40F00100CE
:1026B0007049086227E0E06858B96E48006A20F067
:1026C00001006C4908620846006A20F004000862B4
:1026D00019E0E06805280BD16648006A40F0040064
:1026E000644908620846006A40F0010008620AE096
:1026F0006048006A20F001005E4908620846006AEE
:1027000020F00400086200BFE068B8B3FFF728FAC1
:10271000054609E0FFF724FA401B41F28831884260
:1027200002D90320A4E48BE04020022191FAA1F118
:10273000B1FA81F108430121B1EB601F02D14D488C
:1027400000681EE04020022191FAA1F1B1FA81F166
:1027500008430221B1EB601F02D14648006A10E035
:102760004020022191FAA1F1B1FA81F1084304213C
:10277000B1EB601F03D13F48406802E010E03D48E4
:10278000406A4021022292FAA2F2B2FA82F2114386
:1027900001F01F020121914008400028BAD046E014
:1027A000FFF7DEF9054608E0FFF7DAF9401B41F2D2
:1027B0008831884201D903205AE44020022191FA4D
:1027C000A1F1B1FA81F108430121B1EB601F02D1FF
:1027D000284800681DE04020022191FAA1F1B1FAD9
:1027E00081F108430221B1EB601F02D12148006A48
:1027F0000FE04020022191FAA1F1B1FA81F10843E2
:102800000421B1EB601F02D11A48406801E0194869
:10281000406A4021022292FAA2F2B2FA82F21143F5
:1028200001F01F020121914008400028BCD1012F76
:1028300005D11048C06920F080500E49C86100BF22
:10284000E069002874D00B48406800F00C000828AC
:102850006FD0E06902286DD100204FF0807191FAAD
:10286000A1F1B1FA81F1044A42F82100FFF778F9A9
:1028700005460CE00010024000004242007000409B
:10288000FFF76EF9401B022801D9032047E42020FE
:10289000010591FAA1F1B1FA81F108430121B1EBEF
:1028A000601F02D1774800681DE02020010591FAE1
:1028B000A1F1B1FA81F108430221B1EB601F02D10D
:1028C0007048006A0FE02020010591FAA1F1B1FAE9
:1028D00081F108430421B1EB601F02D169484068CF
:1028E00001E06848406A20210A0592FAA2F2B2FA91
:1028F00082F2114301F01F0201219140084000289B
:10290000BED1D4E9081008435E49496821F4741126
:1029100008435C4948600120010691FAA1F1B1FA2F
:1029200081F1594A42F82100FFF71AF9054609E0FA
:10293000A5E092E041E0FFF713F9401B022801D91E
:10294000032038E42020010591FAA1F1B1FA81F1C8
:1029500008430121B1EB601F02D14A4800681DE025
:102960002020010591FAA1F1B1FA81F10843022179
:10297000B1EB601F02D14348006A0FE0202001053F
:1029800091FAA1F1B1FA81F108430421B1EB601F82
:1029900002D13C48406801E03A48406A20210A05DB
:1029A00092FAA2F2B2FA82F2114301F01F0201215F
:1029B000914008400028BED061E000204FF08071B7
:1029C00091FAA1F1B1FA81F12F4A42F82100FFF703
:1029D000C7F8054606E0FFF7C3F8401B022801D9F7
:1029E00003202FE42020010591FAA1F1B1FA81F131
:1029F00008430121B1EB601F02D1224800681DE0AD
:102A00002020010591FAA1F1B1FA81F108430221D8
:102A1000B1EB601F02D11B48006A0FE020200105C6
:102A200091FAA1F1B1FA81F108430421B1EB601FE1
:102A300002D11448406801E01248406A20210A058A
:102A400092FAA2F2B2FA82F2114301F01F020121BE
:102A5000914008400028BED111E0E069012800D172
:102A60007DE40848466806F48031206A814204D13A
:102A700006F47011606A814201D001206FE40020E9
:102A80006DE40000001002400000424270B50446B0
:102A90002546681EB0F1807F01D301200FE0681E3B
:102AA0004FF0E02148610F214FF0FF3000F084FD2E
:102AB00000204FF0E021886107200861002070BDF0
:102AC000704770477047000030B502460B4600BFA4
:102AD00092F83C00012801D1022030BD012082F88B
:102AE0003C0000BF022082F83D0010684168106879
:102AF0008468154D1068A84203D121F4700158680C
:102B0000014321F0700118680143106841600E4DC7
:102B10001068A84207D01068B0F1804F03D00B4D69
:102B20001068A84205D124F0800498680443106816
:102B30008460012082F83D0000BF002082F83C0044
:102B400000BF00BFC9E70000002C01400040014069
:102B500010B504460CB9012010BD94F83D0028B909
:102B6000002084F83C00204600F00CF8022084F895
:102B70003D00211D206800F001FC012084F83D008B
:102B80000020E9E710B586B00446142101A8FDF73E
:102B900061FB2068B0F1804F31D100BF1948C06996
:102BA00040F001001749C8610846C06900F0010003
:102BB000009000BF00BF00BF0846406940F40030ED
:102BC00048610846406900F40030009000BF00BF33
:102BD000082001900220029000200390032004901E
:102BE0000120059001A94FF09040FEF7CDFE002294
:102BF00001211C20FFF73DF81C20FFF72AF806B042
:102C000010BD00000010024001460868C06840F096
:102C100001000B68D86008688068084B00EA03026E
:102C2000062A08D0B2F5803F05D00868006840F059
:102C300001000B68186000207047000007000100C9
:102C40002DE9F04104460D4600BF94F83C000128F0
:102C500002D10220BDE8F081012084F83C0000BFD1
:102C6000022084F83D00206886683748064026F434
:102C70007F46206886602868502833D00CDC2028E6
:102C800050D004DC00284BD0102851D149E0302826
:102C900049D040284CD139E060282DD0702807D089
:102CA000B0F5805F03D0B0F5005F41D10DE040E0AA
:102CB000D5E902136A68206800F0B3FB20688668D3
:102CC00046F077062068866033E0D5E902136A682B
:102CD000206800F0A6FB2068806840F480402168EE
:102CE000886026E0EA686968206800F0AEFB502141
:102CF000206800F0A1FB1CE0EA686968206800F029
:102D0000E5FB6021206800F097FB12E0EA68696843
:102D1000206800F09AFB4021206800F08DFB08E05D
:102D200000BF00BF00BF2968206800F085FB00E0FD
:102D300000BF00BF012084F83D0000BF002084F8E0
:102D40003C0000BF00BF85E788FFFEFF10B50446CA
:102D5000207F082816D12168086C0B4900F090FEEE
:102D60000A480088401C09490880084600886428F1
:102D700001DB002008802068006C0549034A1288A6
:102D800041F8220010BD0000E5390008680000206D
:102D9000880400202DE9F04104460D46164600BF88
:102DA00094F83C00012802D10220BDE8F081012006
:102DB00084F83C0000BF022084F83D0096B9EB681F
:102DC000D5E90012206800F053FB2068806920F0EC
:102DD0000C002168886120688069A968084321681F
:102DE00088613DE0042E13D1EB68D5E9001220681C
:102DF00000F080FB2068806920F4406021688861D1
:102E000020688069A96840EA01202168886127E07C
:102E1000082E12D1EB68D5E90012206800F087FB7C
:102E20002068C06920F00C002168C8612068C06972
:102E3000A96808432168C86112E0EB68D5E900126F
:102E4000206800F090FB2068C06920F44060216891
:102E5000C8612068C069A96840EA01202168C8618A
:102E6000012084F83D0000BF002084F83C0000BF32
:102E700000BF9AE710B504460CB9012010BD94F8C4
:102E80003D0028B9002084F83C00204600F00CF8F2
:102E9000022084F83D00211D206800F06FFA012017
:102EA00084F83D000020E9E77047000070B5044653
:102EB0000E4601223146206800F0A2FA20688068A0
:102EC000074900EA0105062D08D0B5F5803F05D079
:102ED0002068006840F0010021680860002070BD93
:102EE0000700010070B504460E4636B1042E0BD023
:102EF000082E10D00C2E1CD114E02068C06840F0C1
:102F000002002168C86015E02068C06840F0040035
:102F10002168C8600EE02068C06840F008002168A1
:102F2000C86007E02068C06840F010002168C860F1
:102F300000E000BF00BF01223146206800F060FAC7
:102F400020688068074900EA0105062D08D0B5F51C
:102F5000803F05D02068006840F0010021680860CB
:102F6000002070BD0700010010B50446206800690C
:102F7000C0F34000D8B12068C068C0F34000B0B1D1
:102F80006FF00200216808610120207720688069C5
:102F900000F0030018B12046FFF7D8FE05E02046F8
:102FA00000F0BEF8204600F0BCF800202077206832
:102FB0000069C0F38000D8B12068C068C0F3800009
:102FC000B0B16FF00400216808610220207720680A
:102FD000806900F4407018B12046FFF7B7FE05E0A5
:102FE000204600F09DF8204600F09BF80020207756
:102FF00020680069C0F3C000D8B12068C068C0F381
:10300000C000B0B16FF0080021680861042020778B
:103010002068C06900F0030018B12046FFF796FE53
:1030200005E0204600F07CF8204600F07AF8002009
:10303000207720680069C0F30010D8B12068C0680C
:10304000C0F30010B0B16FF01000216808610820D3
:1030500020772068C06900F4407018B12046FFF75F
:1030600075FE05E0204600F05BF8204600F059F8B8
:10307000002020772068006900F0010058B1206826
:10308000C06800F0010030B16FF0010021680861F4
:10309000204600F047F820680069C0F3C01058B11E
:1030A0002068C068C0F3C01030B16FF080002168A4
:1030B00008612046FFF705FD20680069C0F3002085
:1030C00058B12068C068C0F3C01030B16FF4807090
:1030D000216808612046FFF7F3FC20680069C0F30F
:1030E000801058B12068C068C0F3801030B16FF014
:1030F000400021680861204600F01CF82068006943
:10310000C0F3401058B12068C068C0F3401030B11F
:103110006FF02000216808612046FFF7D3FC10BD46
:103120007047704702490968491C014A116070479D
:1031300064000020704700BFFEE7000010B50C4897
:103140000C4908604020486000210A4881602A211B
:10315000C1604FF400410161002181614162FEF7CD
:1031600053F908B1FDF71EFC0248FEF7EBF910BD5C
:1031700020000140040400200EB5002000900190C2
:1031800002901048104908600846FEF7AAFA08B1F4
:10319000FDF708FC002000900190002269460A48D3
:1031A000FEF772FA08B1FDF7FDFB40F2AA230022F8
:1031B00011460548FEF7E2FA00210348FEF7EEFA51
:1031C0000EBD0000007400403404002000B58BB038
:1031D00000200790089009900A90049005900690AE
:1031E00000900190029003904FF0804024490860C5
:1031F00000204860002122488160491EC1600021F2
:10320000016180218161FFF7A3FC08B1FDF7CAFBD2
:103210004FF48050079007A91948FFF711FD08B136
:10322000FDF7C0FB1648FFF725FE08B1FDF7BAFB16
:1032300000200490069004A91148FFF745FC08B14E
:10324000FDF7B0FB022000900120019000200290C9
:10325000032003900C2269460948FFF79BFD08B143
:10326000FDF7A0FB0C210648FFF720FE0C210448C7
:10327000FFF738FE0248FFF7C7FC0BB000BD0000A7
:103280004804002000BFFEE770477047704710B544
:1032900001F05CF910BD00B58FB001200090000472
:1032A00001900020029002200790C1030891410480
:1032B00009916846FEF7D8FE08B100BFFEE70F206F
:1032C0000A9002200B9000200C904FF480600D902B
:1032D00000200E9002210AA8FEF71EFD08B100BFD3
:1032E000FEE70FB000BD00001948006840F4700010
:1032F000174908601748006840F001001549086048
:103300000846406814490840124948600846006869
:10331000124908400F4908600846006820F48020E0
:1033200008600846406820F4FE0048600846C06A0D
:1033300020F00F00C8620846006B094908400549A3
:10334000086300208860C80301498039086070471D
:1033500088ED00E0001002400CC07FF8FFFFF6FE91
:10336000CCFC00FF10B500F00BFE10BD10B50248FC
:10337000FFF7FAFD10BD00004804002010B50268F8
:103380001B4B984202D0B0F1804F03D122F0700263
:103390004B681A43164B98420BD0B0F1804F08D0BF
:1033A000144B984205D0144B984202D0134B9842CC
:1033B00003D122F44072CB681A4322F080034C6997
:1033C00043EA040202608B68C3620B688362084BA5
:1033D000984208D0074B984205D0074B984202D03C
:1033E000064B984201D10B6903630123436110BD71
:1033F000002C0140004001400044014000480140D1
:1034000030B501F01F05012404FA05F3046A9C435A
:103410000462046A01F01F0502FA05F52C430462F8
:1034200030BD30B50C46816821F47F4142EA032566
:1034300025432943816030BD0A46816821F070012F
:1034400042F0070319438160704730B50B461446BC
:10345000026A056A25F001050562816921F0F00123
:1034600041EA041122F00A021A438161026230BD6E
:1034700070B50C461546066A26F00106066281699B
:10348000026A104EB04205D0B0F1804F02D00E4E0D
:10349000B04201D1012600E000261EB121F0030157
:1034A000294301E041F0010121F0F001F02606EA94
:1034B0000316314322F00A0204F00A063243816106
:1034C000026270BD002C01400040014030B50B4647
:1034D0001446056A25F0100505628169026A21F427
:1034E000704141EA043122F0A00242EA03128161F4
:1034F000026230BD70B50C461546066A26F010060D
:1035000006628169026A21F4407141EA052121F4D1
:1035100070414FF4704606EA0336314322F0A002B0
:10352000A02606EA041632438161026270BD70B5BE
:103530000C461546066A26F480760662C169026A60
:1035400021F00301294321F0F001F02606EA0316D9
:10355000314322F420624FF4206606EA0426324307
:10356000C161026270BD70B50C461546066A26F44C
:1035700080560662C169026A21F4407141EA052160
:1035800021F470414FF4704606EA0336314322F4C9
:1035900020424FF4204606EA04363243C1610262FB
:1035A00070BD00BFFEE7000002480068C0F30220C3
:1035B000704700000CED00E010B5002804DB0A079E
:1035C000130E054A135406E00A07140E034A00F0CE
:1035D0000F031B1FD45410BD00E400E018ED00E001
:1035E00002E008C8121F08C1002AFAD170477047CC
:1035F000002001E001C1121F002AFBD1704700002A
:1036000010B50948FDF7C0FE0848006800F0080042
:10361000082804D000221146054800F089F90E2040
:103620000249486010BD0000040100200000024073
:103630000D38000800B58DB000BF5E48406940F409
:1036400000305C4948610846406900F40030019050
:1036500000BF00BF03200890099000200A900320BB
:103660000B9008A94FF09040FEF78EF900BF51482B
:10367000406940F080504F4948610846406900F079
:103680008050019000BF00BF0846C06A20F4F87067
:1036900040F48070C8624FF0A04047490860084677
:1036A000FDF7DCFB10B101200DB000BD4FF4803000
:1036B00041494860002140488160C16001210161A9
:1036C0000421416100210176012141760221C1617D
:1036D000012180F82010416281620021C162012134
:1036E00080F8301000214163FDF7AEFC08B10120E5
:1036F000DAE700BF2F48406940F001002D494861DA
:103700000846406900F00100019000BF00BF2B484F
:103710002B490860002048600021294881608021F1
:10372000C1604900016189004161002181614FF45C
:103730008051C161FEF783F82148FEF7ABF800BF66
:103740001F481D49886308461D49486200BF002282
:1037500003210B20FEF78DFA0B20FEF77AFA0021E9
:103760001548FDF720F908B101209DE701200290DE
:10377000039005200490002005900690079002A970
:103780000D48FDF767F908B101208DE7022002908E
:10379000039002A90848FDF75DF91022094906487F
:1037A000FDF776FD08B101207EE7074800F0BAFE7C
:1037B000002079E7001002400401002008000240C8
:1037C0005401002098010020CD37000810B50446B0
:1037D000084801780078401C064A1070022907DB6F
:1037E000002011460870102203490448FDF750FDDF
:1037F00010BD0000590000209801002004010020A5
:1038000001490860704700004C00002070B5054673
:103810000E46002422480078012801D1214C01E005
:10382000204C08341E48007880F001001C490870C4
:103830001D4800210160416000BF13E000200DE041
:10384000194A52F82020022303FB010334F81330F5
:103850001A44154B43F82020421CD0B20228EFDB5B
:10386000481C81B20429E9DB002009E00E4951F827
:103870002010C1F39C010C4A42F82010411CC8B230
:103880000228F3DB0948006840B1074A928891B2E8
:10389000054A128890B2054A1268904770BD000030
:1038A0005800002098010020500000204C0000200B
:1038B00008B504E00098818850F8062B90476846C8
:1038C00000F004F80028F5D008BD000010B504464B
:1038D00000BF0E4800880E490988884201D10120A6
:1038E00000E00020012801D1042010BD0848008814
:1038F000C0EBC000074901EB80002060044800884D
:1039000000F00CF8024908800020EEE75A00002081
:103910005C000020B8010020002070470146481CD0
:10392000142801DD002000E0481C80B27047000030
:103930002DE9F04106460F46154616B90220BDE8AE
:10394000F081142D01DD0520F9E74FF6FF74012009
:1039500080F3108800BF00BF1F480088FFF7DEFF1C
:1039600000F0FF081D480088804501D1012000E0DB
:10397000002030B9184804880088FFF7CFFF1649A7
:103980000880002080F3108800BF4FF6FF7084424B
:1039900001D10320D3E7C4EBC400114941F82060F2
:1039A00005B13FB90020C4EBC4010D4A02EB81010F
:1039B00088800FE0C4EBC400094901EB80008580DA
:1039C000C4EBC401064A02EB8101881D2A46394630
:1039D000FCF727FC00BFB2E75A0000205C00002083
:1039E000B801002070B5044622480568002021492E
:1039F0000860012D02D92048046070BD1F4800688E
:103A000098B31D490968611A4822B1FBF2F044F2EB
:103A10001111884203D244F22511884201D80321B2
:103A20001EE044F25111884203D244F265118842EB
:103A300001D8042114E044F61661884203D244F60A
:103A40002A61884201D801210AE044F65661884281
:103A500003D244F66A61884201D8022100E00021C5
:103A60000E4630460549096888470348046000BF90
:103A7000C3E7000064000020740000206000002004
:103A800070B504460D461C480068201A4821B0FB5A
:103A9000F1F61A48007801281BD11E2E07D3222EDA
:103AA00005D817480078401C1549087002E000202E
:103AB0001349087012480078122819DB00201049B9
:103AC00008700E4908700F4908708DB12046A8474C
:103AD0000EE00C48007814280ADA0A480078401CE6
:103AE000C0B208490870142802DB0120034908709D
:103AF0000148046070BD0000700000206C000020D0
:103B00006A0000206B00002010B52DED068BB0EE92
:103B1000408A9FED0F0A28EE000A10EE101A0846A0
:103B2000FCF7DFFC41EC1A0B9FED0A0B53EC102B5A
:103B3000FCF742FC41EC190BFCF7BAFC04462346A7
:103B4000002211460548FDF719FEBDEC068B10BD9D
:103B5000000080456666666666660A40340400209A
:103B6000FEF73CF8FFF797FBFFF7D6FE00F024F8CE
:103B700000F0A2F900F014F900F0AAF800F074F9CE
:103B800000F056F800F04EFB00F0D2F9FFF752FDBE
:103B9000FFF7D4FAFFF7F0FAFFF718FB00F0F2FC9A
:103BA000044800F0BFFC03E0FFF782FE00F0E2FCF7
:103BB000FAE70000E144000800B587B000BF1148F3
:103BC000406940F400300F4948610846406900F4FC
:103BD0000030019000BF00BF202002900120039020
:103BE00004900320059002A94FF09040FDF7CCFE11
:103BF000002220214FF09040FDF7ACFF002007B0DD
:103C000000BD00000010024010B50446012C06D192
:103C1000002220214FF09040FDF79CFF07E0022C8E
:103C200005D1012220214FF09040FDF793FF10BDF8
:103C300000B587B000BF1148406940F400300F491B
:103C400048610846406900F40030019000BF00BFA1
:103C5000881402900120039004900020059002A98E
:103C60004FF09040FDF790FE00224FF480514FF04E
:103C70009040FDF76FFF002007B000BD001002402C
:103C800010B5044622464FF480514FF09040FDF7A6
:103C900061FF10BD10B504460B4800884FF6FF7158
:103CA00088420FDA08480088401C07490880084607
:103CB000008842F21071884204D100221146034864
:103CC000FFF736FE10BD000034000020013D000863
:103CD00010B5002003490880034800F023FC0020B1
:103CE00010BD000034000020953C000810B50446CB
:103CF00022464FF480414FF09040FDF72BFF10BD5E
:103D000030B587B004460D4600BF1148406940F405
:103D100000300F4948610846406900F400300190C6
:103D200000BF00BF4FF48040029001200390049038
:103D30000020059002A94FF09040FDF725FE0022DB
:103D40004FF480414FF09040FDF704FF07B030BDC5
:103D50000010024010B504460C480088401C0B4976
:103D600008800B4800884FF6FF7188420CDA08483B
:103D70000088401C0649088008460088B0F5FA7F94
:103D800002D10020FFF7B2FF10BD00002C00002080
:103D90002E0000200149086070470000300000201C
:103DA00000B587B000BF1448406940F400301249A4
:103DB00048610846406900F40030019000BF00BF30
:103DC0004FF4004002900D4803900120049003201E
:103DD000059002A94FF09040FDF7D6FD0022022188
:103DE0002820FDF746FF2820FDF733FF044800F0A8
:103DF00099FB002007B000BD001002400000311008
:103E0000553D000810B504464FF400414FF0904076
:103E1000FDF798FE18B900200F4908801AE00E48F7
:103E20000088B0F5F07F15DB0B480088B0F5027F05
:103E300010DC9FED0A0A00F0D5F858B100200849BF
:103E400008800120FFF752FF0648006810B10548BE
:103E50000068804710BD00002C0000206666663FA9
:103E60002E0000203000002000B587B000BF1048B1
:103E7000406940F480200E4948610846406900F4DA
:103E80008020019000BF00BF10200290012003900D
:103E900004900320059002A90648FDF775FD002255
:103EA00010210448FDF756FE002007B000BD0000B9
:103EB000001002400004004800B587B000BF104861
:103EC000406940F480200E4948610846406900F48A
:103ED0008020019000BF00BF80200290012003904D
:103EE00004900320059002A90648FDF74DFD00222D
:103EF00080210448FDF72EFE002007B000BD000021
:103F0000001002400004004810B50446012C05D101
:103F1000002280210548FDF71DFE06E0022C04D199
:103F2000012280210148FDF715FE10BD0004004864
:103F300010B500F003F8002010BD000000B587B0F8
:103F400000BF0E48406940F400300C494861084603
:103F5000406900F40030019000BF00BF4FF43060B2
:103F6000029011200390002004900320059002A9E4
:103F70004FF09040FDF708FD07B000BD0010024073
:103F800010B509480068C06800F0010058B16FF032
:103F900001000549096808610448006818B100205B
:103FA00002490968884710BDA80000203800002099
:103FB000034800880249888008464088C8807047C6
:103FC0002200002038B505460C46ADF80250ADF889
:103FD0000040042269460248FFF7AAFC38BD0000F1
:103FE0001141000810B52DED088BB0EE408A9FED11
:103FF000210A28EE000A10EE101A0846FCF771FAA2
:1040000041EC1B0B9FED1C0B53EC102BFCF7D4F970
:1040100041EC190B1A490888FCF73DFA41EC1A0BE0
:1040200053EC192BFCF770FA1DD99FED120A28EEFC
:10403000000A10EE101A0846FCF753FA41EC1B0B6D
:104040009FED0D0B53EC102BFCF7B6F941EC190B5F
:104050000B494888FCF71FFA41EC1A0B53EC192B5B
:10406000FCF752FA03D80020BDEC088B10BD0120EC
:10407000FAE70000000080456666666666660A40EC
:104080002200002070B52DED048B1D4806781D49D7
:104090008888FCF700FA41EC190B9FED1B0B53ECE1
:1040A000102BFCF7E2F841EC180BFCF701FA84B294
:1040B0001449C888FCF7EFF941EC190B9FED120B7E
:1040C00053EC102BFCF7D1F841EC180BFCF7F0F98E
:1040D00085B20C480088A04203DB0020FFF7D0FD2A
:1040E0000AE008484088A84203DB0020FFF7C8FD2B
:1040F00002E00120FFF7C4FDBDEC048B70BD0000A1
:104100002100002022000020091F7CF0C1076F4021
:104110002DE9F0472DED048B04468A462746388862
:104120003849394A127821F8120078883749364AD6
:10413000127821F8120034490978481C00EBD0713C
:104140004910A0EB4101304A117031480078022833
:1041500004DA2F480078401C2D49087000250026FD
:10416000002009E0274931F810100D44274931F8A3
:1041700010100E44411C88B2254909788842F1DBB1
:1041800023480078B5FBF0F02249088020480078E9
:10419000B6FBF0F048808888FCF77DF941EC190BFC
:1041A0009FED1D0B53EC102BFCF75FF841EC180B47
:1041B000FCF77EF91FFA80F81649C888FCF76BF9FE
:1041C00041EC190B9FED140B53EC102BFCF74DF841
:1041D00041EC180BFCF76CF91FFA80F90D480088C8
:1041E000404507DB0B484088484503DB01200C496C
:1041F000087002E002200A490870BDEC048BBDE89B
:10420000F087000016000020120000201A00002095
:104210001300002022000020091F7CF0C1076F401E
:104220002000002010B540F2263008498880C88060
:10423000FF2007490870074800F074F90648FFF7A7
:10424000DFFA0648FFF7A6FD002010BD220000207F
:104250001E00002061420008C53F0008B13F000871
:1042600070B5054625480088401C2449088024482C
:10427000007801281DD12348007821490978884217
:1042800013D001201F4908709FED1F0AFFF73CFC67
:104290000120FFF739FE0120FFF7B6FC0020FFF7F1
:1042A000EFFCFF201949087027E00020134908801F
:1042B00023E01348007802281FD100F0ADF804462F
:1042C00012480078844214D00E480078022804D0A6
:1042D00002200C490870FFF717FE00F019F8074894
:1042E0000088B0F57A7F07DBFFF7CCFE0748047043
:1042F00002E000200149088000BF70BD14000020CA
:10430000200000201F000020CDCC0C3F1E0000200C
:1043100070B52DED048B3A4804783A498888FCF74B
:10432000BAF841EC190B9FED380B53EC102BFBF74F
:104330009CFF41EC180BFCF7BBF885B23149C888EB
:10434000FCF7A9F841EC190B9FED2F0B53EC102B48
:10435000FBF78BFF41EC180BFCF7AAF886B2294853
:104360000088A84208DB01240020FFF789FC9FEDAC
:10437000280AFFF7C9FB37E022484088B04208DB33
:1043800002240020FFF77CFC9FED210AFFF7BCFB15
:104390002AE00120FFF774FC9FED1E0AFFF7B4FB33
:1043A0001848008817498988884201DC02241BE0EC
:1043B000144840881349C988884201DC012413E06D
:1043C000104A12880F4B9B88D21A90B20D4A52881D
:1043D0000C4BDB88D21A91B2884201DD012402E045
:1043E000884200DA022400BF05480078844204D0E5
:1043F000034804702046FFF707FCBDEC048B70BD3A
:104400002100002022000020091F7CF0C1076F401E
:10441000CDCC0C3F0000000070B52DED048BFF24C7
:104420002A498888FCF737F841EC190B9FED280BD7
:1044300053EC102BFBF719FF41EC180BFCF738F885
:1044400085B22249C888FCF726F841EC190B9FED8C
:10445000200B53EC102BFBF708FF41EC180BFCF77B
:1044600027F886B219480088A84201DB012429E018
:1044700016484088B04201DB022423E0134800883C
:1044800012498988884201DC03241BE00F484088D8
:104490000E49C988884201DC042413E00B4A1288C3
:1044A0000A4B9B88D21A90B2084A5288074BDB8885
:1044B000D21A91B2884201DD052402E0884200DA76
:1044C000062400BF2046BDEC048B70BD22000020F6
:1044D000091F7CF0C1076F400A4601687047000061
:1044E00038B504460D4801680068401C0B4A10604E
:1044F0004FF47A70B1FBF0F200FB121060B907487C
:1045000000684FF47A71B0FBF1F000900422694624
:104510000348FFF70DFA00BF38BD0000000000207F
:10452000D9440008024600210AE0074850F821005B
:1045300020B9054840F8212000207047481CC1B22E
:104540000829F2DB0320F8E78800002010B50024DA
:104550000AE0074850F8240020B1054850F824101C
:1045600000208847601CC4B2082CF2DB10BD00009C
:104570008800002010B50248FDF729FB10BD00009F
:104580007800002010B560204FF0005191FAA1F1A1
:10459000B1FA81F108430121B1EB601F02D120483B
:1045A00000681FE060204FF0005191FAA1F1B1FACC
:1045B00081F108430221B1EB601F02D11848006A63
:1045C00010E060204FF0005191FAA1F1B1FA81F1B1
:1045D00008430421B1EB601F02D11148406801E09B
:1045E0000F48406A0120010691FAA1F1B1FA81F168
:1045F0000C4A02EB8101C1F880040B480B490860AA
:104600000320486040F6B8310848816040F6FF71E9
:10461000C160FDF7ABFA08B1012010BD0020FCE736
:1046200000100240000042420030004078000020AC
:104630000000000000000000010203040607080952
:104640000000000001020304020304050607080934
:104650000A0B0C0D0E0F10100102030405060708CB
:10466000090A0B0C0D0E0F108846000800000020F0
:1046700078000000E03500080047000878000020BE
:10468000A0090000F03500080000000000127A00C8
:104690000000000010000000010000000000000009
:1046A000000000000000FF0000000000000000000B
:1046B00000000000000000000000000000000000FA
:1046C0000000000000FA00005C120000102700004B
:1046D0005C1200000000000000000000000000006C
:1046E00001000000000000000000000000000000C9
:1046F00000000000000000000000000000000000BA
:040000050800018965
:00000001FF
