:020000040800F2
:10000000600600200D020008D7020008CF02000899
:10001000D3020008C70200085D03000800000000CA
:10002000000000000000000000000000DB020008EB
:10003000CB02000800000000D9020008DD02000821
:1000400027020008270200082702000827020008EC
:100050002702000827020008CD0200082702000836
:1000600027020008270200082702000827020008CC
:1000700027020008270200082702000827020008BC
:1000800027020008270200082702000800000000DD
:10009000000000000000000000000000270200082F
:1000A000270200082702000827020008270200088C
:1000B00027020008000000000000000027020008DE
:1000C000270200082702000827020008000000009D
:1000D000270200082702000827020008270200085C
:1000E00027020008270200080000000000000000AE
:1000F0000000000000000000000000000000000000
:1001000000000000000000000000000027020008BE
:1001100000000000000000002702000800000000AE
:1001200000000000000000000000000000000000CF
:1001300000000000000000000000000000000000BF
:10014000270200082702000800000000000000004D
:10015000000000000000000000000000000000009F
:10016000270200082702000800000000000000002D
:10017000000000000000000000000000000000007F
:10018000000000002702000800F002F800F02EF83E
:100190000AA090E8000C82448344AAF10107DA45E2
:1001A00001D100F023F8AFF2090EBAE80F0013F006
:1001B000010F18BFFB1A43F001031847BC010000F0
:1001C000CC0100000023002400250026103A28BF9F
:1001D00078C1FBD8520728BF30C148BF0B607047B9
:1001E0001FB500F0C3F81FBD10B510BD00F031F809
:1001F0001146FFF7F5FF00F0B3F800F04FF803B435
:10020000FFF7F2FF03BC00F057F8000009488047F1
:1002100009480047FEE7FEE7FEE7FEE7FEE7FEE7E8
:10022000FEE7FEE7FEE7FEE704480549054A064B00
:1002300070470000E102000889010008600000200A
:1002400060060020600200206002002070477047B6
:100250007047754600F02CF8AE46050069465346D7
:1002600020F00700854618B020B5FFF7DDFFBDE898
:1002700020404FF000064FF000074FF000084FF00D
:10028000000B21F00701AC46ACE8C009ACE8C0099E
:10029000ACE8C009ACE8C0098D46704710B504460B
:1002A000AFF300802046BDE81040FFF7A8BF000074
:1002B000004870470000002001491820ABBEFEE74F
:1002C00026000200704700BFFEE77047704700BF7E
:1002D000FEE700BFFEE770477047704770470000B9
:1002E0001948006840F47000174908601748006812
:1002F00040F001001549086008464068144908406C
:100300001249486008460068124908400F490860D1
:100310000846006820F4802008600846406820F401
:10032000FE0048600846C06A20F00F00C862084618
:10033000006B094908400549086300208860C8032C
:10034000014980390860704788ED00E000100240E4
:100350000CC07FF8FFFFF6FECCFC00FF00BFFEE7FD
:1003600000F002F800BFFEE7002070474FF0407039
:10037000E1EE100A7047000088030008000000202A
:0803800060060000C401000842
:040000050800018965
:00000001FF
