:020000040800F2
:10000000080400209D0100082102000819020008D0
:100010001D02000811020008A502000800000000EF
:1000200000000000000000000000000025020008A1
:100030001502000800000000230200082702000843
:10004000B7010008B7010008B7010008B7010008B0
:10005000B7010008B701000817020008B70100083F
:10006000B7010008B7010008B7010008B701000890
:10007000B7010008B7010008B7010008B701000880
:10008000B7010008B7010008B70100080000000030
:10009000000000000000000000000000B7010008A0
:1000A000B7010008B7010008B7010008B701000850
:1000B000B70100080000000000000000B7010008C0
:1000C000B7010008B7010008B701000800000000F0
:1000D000B7010008B7010008B7010008B701000820
:1000E000B7010008B7010008000000000000000090
:1000F0000000000000000000000000000000000000
:10010000000000000000000000000000B70100082F
:100110000000000000000000B7010008000000001F
:1001200000000000000000000000000000000000CF
:1001300000000000000000000000000000000000BF
:10014000B7010008B701000800000000000000002F
:10015000000000000000000000000000000000009F
:10016000B7010008B701000800000000000000000F
:10017000000000000000000000000000000000007F
:1001800000000000B7010008DFF80CD000F02EF8E6
:1001900000480047B90400080804002006488047CA
:1001A00006480047FEE7FEE7FEE7FEE7FEE7FEE75C
:1001B000FEE7FEE7FEE7FEE72902000889010008E6
:1001C00030B50B46014600202022012409E021FA27
:1001D00002F59D4205D303FA02F5491B04FA02F524
:1001E0002844151EA2F10102F1DC30BD064C074D7A
:1001F00006E0E06840F0010394E8070098471034F7
:10020000AC42F6D3FFF7C4FF780500089805000854
:1002100000BFFEE77047704700BFFEE700BFFEE784
:1002200070477047704770471948006840F4700085
:10023000174908601748006840F001001549086038
:10024000084640681449084012494860084600685A
:10025000124908400F4908600846006820F48020D1
:1002600008600846406820F4FE0048600846C06AFE
:1002700020F00F00C8620846006B09490840054994
:10028000086300208860C80301498039086070470E
:1002900088ED00E0001002400CC07FF8FFFFF6FE82
:1002A000CCFC00FF00BFFEE70FB4054B10B503A95F
:1002B000044A029800F018F810BC5DF814FB000026
:1002C000A50400080000002002E008C8121F08C1B1
:1002D000002AFAD170477047002001E001C1121FC7
:1002E000002AFBD1704700002DE9FF4F8BB09A46E2
:1002F0000F460546002606E025280BD052460D99EC
:1003000090476D1C761C28780028F5D10FB0304638
:10031000BDE8F08F0024A0460122604900E00443BC
:1003200015F8013F203B02FA03F00842F7D1287884
:100330002E2817D115F8010F44F004042A280ED0F6
:100340006FF02F022878A0F1300109290AD808EBB4
:10035000880102EB410100EB01086D1CF2E757F840
:10036000048B6D1C287869283ED006DC0028CDD08F
:1003700063280BD0642804D136E0732810D0752888
:100380004BD052460D999047761C85E017F8040B28
:100390008DF8000000208DF80100E946012003E0FF
:1003A00057F8049B4FF0FF3061074FF0000401D471
:1003B0000AE0641C44450DDA8442FADB19F80410A3
:1003C0000029F6D106E0641C8442FCDB19F8041015
:1003D0000029F8D1264404E019F8010B52460D9982
:1003E0009047641EF8D257E001CF4FF00A0B002867
:1003F00002DA40422D2102E0210504D52B218DF89F
:100400002410012103E0E10705D02021F7E70DF1D9
:10041000200908910CE00021F9E701CF4FF00A0B09
:10042000F9E75946FFF7CCFE01F1300209F8012D3A
:100430000028F6D1ADEB090000F1200B600701D4D4
:100440004FF00108D84502DDA8EB0B0000E00020CA
:100450008046002406E009A85246005D0D999047A9
:10046000641C761C08988442F5DB04E03020524678
:100470000D999047761CB8F10001A8F10108F5DC50
:1004800005E019F8010B52460D999047761CBBF117
:100490000001ABF1010BF4DC6D1C34E7092801000D
:1004A0000020704738B504468DF8000069460320E7
:1004B000ABBE204638BD0000FFF7F2FF1C220DA1A5
:1004C0000EA0FFF7F1FE16A31D220AA116A0FFF74A
:1004D000EBFE01231E2207A11CA0FFF7E5FE00F0A2
:1004E00043F800F043F800F044F801E000F040F871
:1004F000FCE700006D61696E000000005B25735D24
:100500005B6C696E653D25645D3A2A2A2A2A2A6D4C
:1005100061696E2072756E2A2A2A2A2A0D0A000045
:10052000564944454F0000005B25735D5B6C696E66
:10053000653D25645D3A70726F6A656374206E6113
:100540006D653A2025730D0A000000005B25735D80
:100550005B6C696E653D25645D3A76657273696FA3
:100560006E3A2025640D0A00002070470020704775
:100570007047002070470000980500080000002028
:1005800004000000C80200089C05000804000020C8
:0C05900004040000D80200080000000075
:040000050800018965
:00000001FF
