:020000040800F2
:10000000580A00209D010008152000083F1E000826
:1000100011200008790600082F23000800000000C6
:10002000000000000000000000000000192000088F
:10003000CD06000800000000172000081B20000863
:10004000B7010008B7010008B7010008B7010008B0
:10005000B7010008B7010008CF060008B701000883
:10006000B7010008B7010008B70100087D060008C5
:10007000B7010008B7010008B7010008B701000880
:10008000B7010008B7010008B70100080000000030
:10009000000000000000000000000000B7010008A0
:1000A000B7010008F1200008B7010008B7010008F7
:1000B000F92000080000000000000000B70100085F
:1000C000B7010008B7010008B701000800000000F0
:1000D000B7010008B7010008B7010008B701000820
:1000E000D1060008B7010008000000000000000071
:1000F0000000000000000000000000000000000000
:10010000000000000000000000000000B70100082F
:100110000000000000000000B7010008000000001F
:1001200000000000000000000000000000000000CF
:1001300000000000000000000000000000000000BF
:10014000B7010008B701000800000000000000002F
:10015000000000000000000000000000000000009F
:10016000B7010008B701000800000000000000000F
:10017000000000000000000000000000000000007F
:1001800000000000B7010008DFF80CD000F090F983
:100190000048004799250008580A00200648804773
:1001A00006480047FEE7FEE7FEE7FEE7FEE7FEE75C
:1001B000FEE7FEE7FEE7FEE775200008890100087C
:1001C0002DE9F05F0546002092469B46884606468C
:1001D000814640241BE0284641464746224600F01F
:1001E000FAF853465A46C01A914110D311461846A0
:1001F000224600F0E1F82D1A67EB01084F4622462F
:100200000120002100F0D8F817EB00094E41201E14
:10021000A4F10104DFDC484631462A464346BDE8E6
:10022000F09F40EA01039B0703D009E008C9121FB1
:1002300008C0042AFAD203E011F8013B00F8013BA0
:10024000521EF9D27047D2B201E000F8012B491ECC
:10025000FBD270470022F6E710B513460A46044663
:100260001946FFF7F0FF204610BD2DE9F04D81EA59
:10027000030404F0004B21F0004514464FF0000A3F
:1002800023F0004150EA050220D054EA01021DD0BB
:10029000C5F30A570246C5F31303C1F31300C1F3B4
:1002A0000A5640F4801543F48013A7EB0608101B90
:1002B000D64608F2FD3873EB050002D308F10108B9
:1002C00001E092185B41B8F1000F03DA002001460B
:1002D000BDE8F08D00204FF48011064684460EE004
:1002E000171B73EB050705D3121B63EB05030643CE
:1002F0004CEA010C49084FEA300092185B4150EA81
:100300000107EDD152EA030012D082EA040083EA29
:100310000501084305D0101BAB4106D20122002382
:1003200006E000224FF0004302E06FF0010253109C
:100330001AEB06004CEB085110EB0A0041EB0B01E5
:10034000BDE8F04D00F057B80EB540F233410291D0
:100350000021CDE900110A460B4600F05BF803B01E
:1003600000BD00F0004230F000400AD0C10D01F5A0
:100370006071C0F3160042EA0151C2084007114300
:10038000704700200146704730B5041E71F100042B
:1003900004DB4FF00044404264EB0101141E73F192
:1003A000000405DB1C464FF00043524263EB04039C
:1003B000994208BF904230BD202A04DB203A00FA5F
:1003C00002F1002070479140C2F1200320FA03F3AC
:1003D000194390407047202A04DB203A21FA02F0AA
:1003E0000021704721FA02F3D040C2F1200291406F
:1003F00008431946704710B5141E73F1000408DA5B
:10040000401C41F1000192185B411A4301D120F0D8
:10041000010010BD2DE9F04D92469B4611B1B1FA95
:1004200081F202E0B0FA80F220329046FFF7C4FF7A
:1004300004460F4640EA0A0041EA0B0153465A4679
:10044000084313D0114653EA010019D0C8F1400205
:100450005046FFF7C0FF05460E46504659464246F5
:10046000FFF7AAFF084305D0012004E020463946E3
:10047000BDE8F08D0020054346EAE0762C43374383
:100480000A986305E40AA0EB08000022FD0A44EA8A
:1004900047540A3002D500200146E9E7010510194A
:1004A0006941DDE9084500196941BDE8F04DA2E761
:1004B000064C074D06E0E06840F0010394E80700B1
:1004C00098471034AC42F6D3FFF762FE8428000848
:1004D000A42800082DE9F04104460D460027B8463F
:1004E00000262068806800F00C0008B1012000E0C0
:1004F0000020002870D02068C06800F00070B0F1C3
:10050000007F1FD1607E01281CD1207E012819D1D7
:100510000C250EE0314886420AD3206C40F01000D2
:100520002064606C40F0010060640120BDE8F0814F
:10053000761C20680068C0F380100028EAD04020B4
:1005400021680860602D10D02068806800F00400E9
:1005500004280AD12068806800F0020028B92068C9
:10056000806840F01000216888600C2D10D0206851
:10057000806800F0080008280AD12068806800F030
:10058000020028B92068806840F020002168886057
:10059000602D03D06C2D03D10C2703E0082701E068
:1005A000042700BF00BF00F069FA80460FE000F0AA
:1005B00065FAA0EB08000B2809D9206C40F0100068
:1005C0002064606C40F0010060640120AEE72068A8
:1005D000806838400028EAD10020A7E7009409008D
:1005E00070B5044600252068806800F003000128EB
:1005F00006D12068006800F0010008B1012000E089
:10060000002080B32068806800F00D00012800D130
:1006100000E0002050B100BF2068806840F0020078
:100620002168886003202168086009E0206C40F0A0
:1006300010002064606C40F001006064012070BD17
:1006400000F01CFA05460FE000F018FA401B0228E3
:100650000AD9206C40F010002064606C40F001006A
:1006600060640120EBE705E02068806800F001008D
:100670000028E9D10020E2E700BFFEE710B501F055
:1006800085FE10BD054A0168891A1422B1FBF2F1FA
:100690008900016401490839C163704708000240BC
:1006A00030B590F840500124AC40C56B6C600468D4
:1006B00063604468102C04D10468A2600468E1609F
:1006C00003E00468A1600468E26030BD70477047D1
:1006D00010B50748006800F40040B0F5004F06D19F
:1006E0004FF4004002490860002001F075FF10BD82
:1006F00014040140704770B50446002500BF94F80B
:100700003C00012801D1022070BD012084F83C008A
:1007100000BF6C212046FFF7DDFE054625BB2068A3
:10072000C06820F001002168C860A06B00F023F8C9
:1007300005461DB1206C40F04000206420684068F0
:1007400020F010002168486025B92046FFF748FFD7
:10075000054602E02046FFF743FF2DB9206C20F448
:10076000885040F00100206400BF002084F83C0065
:1007700000BF2846C8E7014691F82100022808D0AA
:100780000420886300BF002081F8200000BF012002
:1007900070470868006820F00E000A68106008685A
:1007A000006820F001000A68106091F840200120E4
:1007B0009040CA6B5060012081F8210000BF0020EA
:1007C00081F8200000BF00BFE2E770B504460025B5
:1007D0000CB9012070BD022084F821002068056852
:1007E00043F6F0708543D4E901010843E16808430A
:1007F0002169084361690843A1690843E169084325
:100800000543206805602046FFF73CFF0020A063F9
:10081000012084F82100002084F8200000BFD9E7DF
:100820002DE9F04104460D4616461F464FF00008DC
:1008300000BF94F82000012802D10220BDE8F08119
:10084000012084F8200000BF94F82100012817D16E
:10085000022084F821000020A0632068006820F0B6
:100860000100216808603B46324629462046FFF7D2
:1008700017FF2068006840F001002168086006E06A
:1008800000BF002084F8200000BF4FF0020840465F
:10089000D4E7000078B503460022C6E00126964062
:1008A0000D6805EA0604002C72D04D68022D02D0B6
:1008B0004D68122D13D1D60803F1200555F82600F6
:1008C0005507EE0E0F25B540A8435607F60E0D69E5
:1008D000B5402843D60803F1200545F826001868DE
:1008E00056000325B540A8430D7905F003055600D1
:1008F000B540284318604D68012D08D04D68022D81
:1009000005D04D68112D02D04D68122D13D1986875
:1009100056000325B540A8435600CD68B54028438E
:100920009860586801259540A8430D79C5F30015D6
:10093000954028435860D86856000325B540A84321
:1009400056008D68B5402843D8604D6805F0805545
:10095000B5F1805F68D100BF374DAD6945F0010545
:10096000354EB5613546AD6905F00105009500BF0E
:1009700000BF4FEAB635960855F8260095072E0FAA
:100980000F25B540A843B3F1904F02D1002510E0E8
:100990004AE02A4DAB4201D101250AE0284DAB4285
:1009A00001D1022505E0274DAB4201D1032500E02E
:1009B00005259607360FB5402843234D960845F880
:1009C0002600224D2868A0434D6805F48035B5F512
:1009D000803F00D120431D4D28602D1D2868A04375
:1009E0004D6805F40035B5F5003F00D12043174DA3
:1009F0002D1D28602D1D2868A0434D6805F4801525
:100A0000B5F5801F00D12043104D083528602D1DFD
:100A10002868A0434D6805F40015B5F5001F00D106
:100A200020430A4D0C352860521C0D68D540002D1E
:100A30007FF434AF78BD000000100240000400488D
:100A400000080048000C0048080001400004014074
:100A5000024613690B400BB1012000E000207047F3
:100A600042690A4012B10A04826100E08161704764
:100A70000AB1816100E081627047000001480068AE
:100A8000704700000400002010B50848006840F0DE
:100A9000100006490860032000F070F80F2000F0F5
:100AA00007F800F02BF8002010BD000000200240E5
:100AB00070B504460E4800784FF47A71B1FBF0F03F
:100AC0000C490968B1FBF0F5284600F025FF08B194
:100AD000012070BD102C07D200222146501E00F0CC
:100AE0000EF80548046001E00120F2E70020F0E77D
:100AF0000C000020000000200800002070472DE9B5
:100B0000F05F80460D461646002701F013FC0746AD
:100B100039462A46334601F00700C0F1070ABAF108
:100B2000040F02D94FF0040A01E0C0F1070AD146D0
:100B300000F1040ABAF1070F02D24FF0000A01E0F7
:100B4000A0F1030AD4464FF0010A0AFA09FAAAF101
:100B5000010A0AEA020A0AFA0CFA4FF0010B0BFA30
:100B60000CFBABF1010B0BEA030B4AEA0B04214629
:100B7000404601F0E7FBBDE8F09F000000BF00F039
:100B80000702064B19684FF6FF031940044B0B434D
:100B900043EA0221014B196000BF70470CED00E0F1
:100BA0000000FA0570B504460D4600260CB9012078
:100BB00070BDA248006800F00700A8420ED29F480E
:100BC000006820F0070028439C4908600846006838
:100BD00000F00700A84201D00120E9E7207800F0EA
:100BE0000200022807D19648406820F0F000A16872
:100BF000084393494860207800F0010000287CD029
:100C0000606801283BD12020010391FAA1F1B1FADB
:100C100081F108430121B1EB601F02D188480068CF
:100C20001DE02020010391FAA1F1B1FA81F10843FE
:100C30000221B1EB601F02D18148006A0FE0202041
:100C4000010391FAA1F1B1FA81F108430421B1EB5A
:100C5000601F02D17A48406801E07948406A20214B
:100C60000A0392FAA2F2B2FA82F2114301F01F02D1
:100C700001219140084000287CD1012098E760685C
:100C800002283BD12020010591FAA1F1B1FA81F1AE
:100C900008430121B1EB601F02D1694800681DE0E3
:100CA0002020010591FAA1F1B1FA81F10843022156
:100CB000B1EB601F02D16248006A0FE020200105FD
:100CC00091FAA1F1B1FA81F108430421B1EB601F5F
:100CD00002D15B48406801E05948406A20210A057A
:100CE00092FAA2F2B2FA82F2114301F01F0201213C
:100CF00091400840E8BB01205AE758E0202002213B
:100D000091FAA1F1B1FA81F108430121B1EB601F21
:100D100002D14B4800681DE02020022191FAA1F188
:100D2000B1FA81F108430221B1EB601F02D14448BE
:100D3000006A0FE02020022191FAA1F1B1FA81F1BD
:100D400008430421B1EB601F02D13D48406801E037
:100D50003B48406A2021022292FAA2F2B2FA82F2C1
:100D6000114301F01F0201219140084008B9012000
:100D70001EE7FFE73248406820F00300616808433F
:100D80002F494860FFF77AFE064608E0FFF776FE37
:100D9000801B41F28831884201D9032008E72848A6
:100DA000406800F00C006168B0EB810FEED1234881
:100DB000006800F00700A8420ED92048006820F023
:100DC000070028431D4908600846006800F0070036
:100DD000A84201D00120EBE6207800F004000428AE
:100DE00007D11748406820F4E060E16808431449DF
:100DF0004860207800F00800082808D110484068B2
:100E000020F46050216940EAC1000D49486000F0BB
:100E10001FF80B49496801F0F001F02292FAA2F2A2
:100E2000B2FA82F2D140074A515CC84006490860D4
:100E300006480068FFF73CFE0020B9E600200240AB
:100E4000001002404C28000800000020080000208C
:100E50002DE9F0410024002500270026A0461F4868
:100E6000446804F00C0078B3042802D008282CD180
:100E700002E0DFF86C802CE004F470104FF4701185
:100E800091FAA1F1B1FA81F1C84016490E5C1348FC
:100E9000C06A00F00F000F2191FAA1F1B1FA81F1BF
:100EA000C84011490D5C04F4803040B12A4600234B
:100EB0000B481946FFF784F9A0FB067102E00B48C6
:100EC000A0FB0671B84604E000E000BFDFF8208018
:100ED00000BF00BF4046BDE8F081000000100240A6
:100EE00000366E01642800087428000800093D00DF
:100EF00000127A00F8B504460CB90120F8BD20783C
:100F000000F0010000287BD0FA48406800F00C0097
:100F100004280CD0F748406800F00C00082845D1A0
:100F2000F448406800F48030B0F5803F3ED1202086
:100F3000010391FAA1F1B1FA81F108430121B1EB6A
:100F4000601F02D1EB4800681DE02020010391FAE8
:100F5000A1F1B1FA81F108430221B1EB601F02D186
:100F6000E448006A0FE02020010391FAA1F1B1FAF0
:100F700081F108430421B1EB601F02D1DD484068D4
:100F800001E0DC48406A20210A0392FAA2F2B2FA98
:100F900082F2114301F01F02012191400840002814
:100FA000B1D0606800282BD10120A7E700BF60689E
:100FB000B0F5803F06D1CF48006840F48030CD497D
:100FC000086029E0606858B9CA48006820F4803099
:100FD000C84908600846006820F4802008601BE0CB
:100FE0006068B0F5A02F0CD1C248006840F48020A2
:100FF000C04908600846006840F4803008600BE093
:10100000A1E0BC48006820F48030BA490860084676
:10101000006820F48020086000BFB648C06A20F055
:101020000F00A1680843B349C8626068A0B3FFF726
:1010300025FD054606E0FFF721FD401B642801D988
:1010400003205BE72020010391FAA1F1B1FA81F1BD
:1010500008430121B1EB601F02D1A64800681EE0E1
:101060002020010391FAA1F1B1FA81F10843022194
:10107000B1EB601F02D19F48006A10E020200103FD
:1010800091FAA1F1B1FA81F108430421B1EB601F9B
:1010900003D19848406802E010E09648406A202159
:1010A0000A0392FAA2F2B2FA82F2114301F01F028D
:1010B0000121914008400028BDD044E0FFF7DEFC4C
:1010C000054606E0FFF7DAFC401B642801D903203F
:1010D00014E72020010391FAA1F1B1FA81F108434C
:1010E0000121B1EB601F02D1824800681DE0202081
:1010F000010391FAA1F1B1FA81F108430221B1EBA8
:10110000601F02D17B48006A0FE02020010391FAA2
:10111000A1F1B1FA81F108430421B1EB601F02D1C2
:101120007448406801E07348406A20210A0392FA3B
:10113000A2F2B2FA82F2114301F01F0201219140A2
:1011400008400028BED1207800F0020002285CD1BF
:101150006848406800F00C0050B16648406800F0F4
:101160000C00082852D16348406800F48030E8BB86
:101170002020022191FAA1F1B1FA81F10843012165
:10118000B1EB601F02D15B4800681DE02020022106
:1011900091FAA1F1B1FA81F108430221B1EB601F8C
:1011A00002D15448006A0FE02020022191FAA1F1F7
:1011B000B1FA81F108430421B1EB601F02D14D481F
:1011C000406801E04B48406A2021022292FAA2F2D4
:1011D000B2FA82F2114301F01F020121914008404E
:1011E00028B12069012802D0012087E60EE041489D
:1011F000006820F0F800F82292FAA2F2B2FA82F225
:101200006169914008433B490860B1E0206970B3CF
:10121000012191FAA1F0B0FA80F0374A42F820108B
:10122000FFF72CFC054606E0FFF728FC401B0228D0
:1012300001D9032062E62020022191FAA1F1B1FA3E
:1012400081F108430121B1EB601F02D129480068F8
:101250001EE02020022191FAA1F1B1FA81F10843A8
:101260000221B1EB601F03D12248006A10E02CE09C
:101270002020022191FAA1F1B1FA81F10843042161
:10128000B1EB601F02D11B48406801E01948406A79
:101290002021022292FAA2F2B2FA82F2114301F064
:1012A0001F020121914008400028BDD0114800686C
:1012B00020F0F800F82292FAA2F2B2FA82F2616902
:1012C000914008430B49086052E00020012191FA47
:1012D000A1F1B1FA81F1084A42F82100FFF7CEFBF3
:1012E00005460BE0FFF7CAFB401B022806D9032086
:1012F00004E60000001002400000424220200221CB
:1013000091FAA1F1B1FA81F108430121B1EB601F1B
:1013100002D1FB4800681DE02020022191FAA1F1D2
:10132000B1FA81F108430221B1EB601F02D1F44808
:10133000006A0FE02020022191FAA1F1B1FA81F1B7
:1013400008430421B1EB601F02D1ED48406801E081
:10135000EB48406A2021022292FAA2F2B2FA82F20B
:10136000114301F01F020121914008400028B9D12A
:10137000207800F00800082851D1A06980B301212D
:1013800091FAA1F0B0FA80F0DE4A02EB8000C0F8DA
:101390008014FFF773FB054606E0FFF76FFB401B69
:1013A000022801D90320A9E56020022191FAA1F1C8
:1013B000B1FA81F108430121B1EB601F02D1D0489D
:1013C00000681EE06020022191FAA1F1B1FA81F1DA
:1013D00008430221B1EB601F03D1C948006A10E045
:1013E0001EE06020022191FAA1F1B1FA81F10843D7
:1013F0000421B1EB601F02D1C148406801E0C04840
:10140000406A6021022292FAA2F2B2FA82F21143F9
:1014100001F01F020121914008400028BDD04FE09B
:101420000020012191FAA1F1B1FA81F1B54A02EB54
:101430008101C1F88004FFF721FB054606E0FFF7B4
:101440001DFB401B022801D9032057E56020022123
:1014500091FAA1F1B1FA81F108430121B1EB601FCA
:1014600002D1A74800681DE06020022191FAA1F195
:10147000B1FA81F108430221B1EB601F02D1A0480B
:10148000006A0FE06020022191FAA1F1B1FA81F126
:1014900008430421B1EB601F02D19948406801E084
:1014A0009748406A6021022292FAA2F2B2FA82F2CE
:1014B000114301F01F020121914008400028BED1D4
:1014C000207800F00400042873D100278C48C069FC
:1014D00000F0805070B900BF8948C06940F080506A
:1014E0008749C8610846C06900F08050009000BF7D
:1014F00000BF01278448006800F48070B0B98248BA
:10150000006840F4807080490860FFF7B7FA05462C
:1015100006E0FFF7B3FA401B642801D90320EDE48D
:101520007948006800F480700028F2D000BFE068BD
:10153000012806D17248006A40F001007049086233
:1015400027E0E06858B96E48006A20F001006C4955
:1015500008620846006A20F00400086219E0E068AA
:1015600005280BD16648006A40F00400644908620F
:101570000846006A40F0010008620AE06048006A1C
:1015800020F001005E4908620846006A20F004006D
:10159000086200BFE068B8B3FFF770FA054609E0DB
:1015A000FFF76CFA401B41F28831884202D90320D0
:1015B000A4E48BE04020022191FAA1F1B1FA81F17B
:1015C00008430121B1EB601F02D14D4800681EE0C5
:1015D0004020022191FAA1F1B1FA81F108430221E0
:1015E000B1EB601F02D14648006A10E040200221A2
:1015F00091FAA1F1B1FA81F108430421B1EB601F26
:1016000003D13F48406802E010E03D48406A402175
:10161000022292FAA2F2B2FA82F2114301F01F0200
:101620000121914008400028BAD046E0FFF726FA91
:10163000054608E0FFF722FA401B41F28831884254
:1016400001D903205AE44020022191FAA1F1B1FA14
:1016500081F108430121B1EB601F02D128480068E5
:101660001DE04020022191FAA1F1B1FA81F1084375
:101670000221B1EB601F02D12148006A0FE0402037
:10168000022191FAA1F1B1FA81F108430421B1EBF1
:10169000601F02D11A48406801E01948406A4021A1
:1016A000022292FAA2F2B2FA82F2114301F01F0270
:1016B0000121914008400028BCD1012F05D11048DC
:1016C000C06920F080500E49C86100BFE069002861
:1016D00074D00B48406800F00C0008286FD0E06917
:1016E00002286DD100204FF0807191FAA1F1B1FA7A
:1016F00081F1044A42F82100FFF7C0F905460CE0E9
:10170000001002400000424200700040FFF7B6F9AE
:10171000401B022801D9032047E42020010591FA4B
:10172000A1F1B1FA81F108430121B1EB601F02D1AF
:10173000774800681DE02020010591FAA1F1B1FA77
:1017400081F108430221B1EB601F02D17048006AA9
:101750000FE02020010591FAA1F1B1FA81F10843CF
:101760000421B1EB601F02D16948406801E068487C
:10177000406A20210A0592FAA2F2B2FA82F21143DB
:1017800001F01F020121914008400028BED1D4E998
:10179000081008435E49496821F4741108435C4904
:1017A00048600120010691FAA1F1B1FA81F1594A8C
:1017B00042F82100FFF762F9054609E0A5E092E052
:1017C00041E0FFF75BF9401B022801D9032038E410
:1017D0002020010591FAA1F1B1FA81F1084301211C
:1017E000B1EB601F02D14A4800681DE020200105CE
:1017F00091FAA1F1B1FA81F108430221B1EB601F26
:1018000002D14348006A0FE02020010591FAA1F1BE
:10181000B1FA81F108430421B1EB601F02D13C48C9
:10182000406801E03A48406A20210A0592FAA2F293
:10183000B2FA82F2114301F01F02012191400840E7
:101840000028BED061E000204FF0807191FAA1F134
:10185000B1FA81F12F4A42F82100FFF70FF905464E
:1018600006E0FFF70BF9401B022801D903202FE403
:101870002020010591FAA1F1B1FA81F1084301217B
:10188000B1EB601F02D1224800681DE02020010555
:1018900091FAA1F1B1FA81F108430221B1EB601F85
:1018A00002D11B48006A0FE02020010591FAA1F146
:1018B000B1FA81F108430421B1EB601F02D1144851
:1018C000406801E01248406A20210A0592FAA2F21B
:1018D000B2FA82F2114301F01F0201219140084047
:1018E0000028BED111E0E069012800D17DE408485C
:1018F000466806F48031206A814204D106F47011F2
:10190000606A814201D001206FE400206DE4000094
:10191000001002400000424270B504462546681E91
:10192000B0F1807F01D301200FE0681E4FF0E0216D
:1019300048610F214FF0FF3000F004FD00204FF010
:10194000E021886107200861002070BD7047704762
:10195000704710B504460CB9012010BD94F83D0045
:1019600028B9002084F83C00204600F00DF8022041
:1019700084F83D00211D206800F0C6FB012084F89A
:101980003D000020E9E7000010B586B004461421B0
:1019900001A8FEF75FFC2068B0F1804F36D100BF90
:1019A0001B48C06940F001001949C8610846C06978
:1019B00000F00100009000BF00BF00BF0846406972
:1019C00040F4003048610846406900F4003000905F
:1019D00000BF00BF00BF0846406940F001004861F9
:1019E0000846406900F00100009000BF00BF0820D9
:1019F0000190022002900020039003200490012017
:101A0000059001A94FF09040FEF744FF06B010BDCD
:101A1000001002402DE9F04104460D4600BF94F845
:101A20003C00012802D10220BDE8F081012084F8A9
:101A30003C0000BF022084F83D00206886683748DB
:101A4000064026F47F46206886602868502833D0F8
:101A50000CDC202850D004DC00284BD0102851D1B9
:101A600049E0302849D040284CD139E060282DD0B9
:101A7000702807D0B0F5805F03D0B0F5005F41D18A
:101A80000DE040E0D5E902136A68206800F08FFBA2
:101A90002068866846F077062068866033E0D5E9DE
:101AA00002136A68206800F082FB2068806840F4B6
:101AB00080402168886026E0EA686968206800F054
:101AC0008AFB5021206800F07DFB1CE0EA68696811
:101AD000206800F0C1FB6021206800F073FB12E079
:101AE000EA686968206800F076FB4021206800F011
:101AF00069FB08E000BF00BF00BF2968206800F054
:101B000061FB00E000BF00BF012084F83D0000BF82
:101B1000002084F83C0000BF00BF85E788FFFEFF7F
:101B200070472DE9F04104460D46164600BF94F873
:101B30003C00012802D10220BDE8F081012084F898
:101B40003C0000BF022084F83D0096B9EB68D5E95F
:101B50000012206800F052FB2068806920F00C0021
:101B60002168886120688069A968084321688861C4
:101B70003DE0042E13D1EB68D5E90012206800F097
:101B80007FFB2068806920F44060216888612068BC
:101B90008069A96840EA01202168886127E0082E51
:101BA00012D1EB68D5E90012206800F086FB2068AE
:101BB000C06920F00C002168C8612068C069A9686C
:101BC00008432168C86112E0EB68D5E9001220687B
:101BD00000F08FFB2068C06920F440602168C86174
:101BE0002068C069A96840EA01202168C861012015
:101BF00084F83D0000BF002084F83C0000BF00BF17
:101C00009AE710B504460CB9012010BD94F83D00C8
:101C100028B9002084F83C00204600F00CF802208F
:101C200084F83D00211D206800F06EFA012084F840
:101C30003D000020E9E7704770B504460E460122DA
:101C40003146206800F0A2FA20688068074900EA5F
:101C50000105062D08D0B5F5803F05D02068006845
:101C600040F0010021680860002070BD07000100FD
:101C700010B5044620680069C0F34000D8B1206860
:101C8000C068C0F34000B0B16FF002002168086185
:101C9000012020772068806900F0030018B12046F9
:101CA000FFF73EFF05E0204600F0BEF8204600F0BA
:101CB000BCF80020207720680069C0F38000D8B10C
:101CC0002068C068C0F38000B0B16FF004002168E4
:101CD0000861022020772068806900F4407018B104
:101CE0002046FFF71DFF05E0204600F09DF8204646
:101CF00000F09BF80020207720680069C0F3C00046
:101D0000D8B12068C068C0F3C000B0B16FF008005F
:101D100021680861042020772068C06900F0030072
:101D200018B12046FFF7FCFE05E0204600F07CF8E5
:101D3000204600F07AF80020207720680069C0F380
:101D40000010D8B12068C068C0F30010B0B16FF0C7
:101D5000100021680861082020772068C06900F41D
:101D6000407018B12046FFF7DBFE05E0204600F08A
:101D70005BF8204600F059F80020207720680069C1
:101D800000F0010058B12068C06800F0010030B1D7
:101D90006FF0010021680861204600F047F82068D4
:101DA0000069C0F3C01058B12068C068C0F3C0100B
:101DB00030B16FF08000216808612046FFF7C7FD51
:101DC00020680069C0F3002058B12068C068C0F3E3
:101DD000C01030B16FF48070216808612046FFF7B1
:101DE000B5FD20680069C0F3801058B12068C06854
:101DF000C0F3801030B16FF04000216808612046C8
:101E000000F01CF820680069C0F3401058B1206849
:101E1000C068C0F3401030B16FF020002168086145
:101E20002046FFF795FD10BD7047704702490968CD
:101E3000491C014A116070476C000020704700BFC8
:101E4000FEE7000000B58DB0002009900A900B90CD
:101E50000C900690079008900290039004900590D3
:101E60004FF08040624908600020486000216048CF
:101E70008160491EC1600021016180218161FFF7FD
:101E800068FD08B1FEF736FC4FF48050099009A9AF
:101E90005748FFF7BFFD08B1FEF72CFC5448FFF789
:101EA000B0FE08B1FEF726FC00200290022003904D
:101EB000002004900590082202A94D48FFF731FE4A
:101EC00008B1FEF717FC02200290012003900020C9
:101ED000049005900C2202A94548FFF722FE08B1A4
:101EE000FEF708FC00BF4348406940F0010041494B
:101EF00048610846406900F00100019000BF00BF42
:101F00003D483E4908601020486000213B48816000
:101F1000C1604FF40071016189004161202181613C
:101F20004FF44051C16136483449096888603548EA
:101F300032490968C86000203049096848602F4864
:101F4000FEF743FC08B1FEF7D5FB00BF2B4928483C
:101F50000163486200BF284878382B490860102088
:101F60004860002128488160C1604FF40071016120
:101F700089004161202181614FF44051C1612048B5
:101F800021490968886021481F490968C860002004
:101F90001D49096848601C48FEF717FC08B1FEF7A8
:101FA000A9FB00BF18491248C162486200BF014640
:101FB0000123134AC86A1549FEF732FC0C49012374
:101FC0000F4A086B0F49FEF72BFC09480068C068F0
:101FD00040F4C05006490968C8600C210448FFF766
:101FE0002BFE08210248FFF727FE0DB000BD0000C0
:101FF0000004002000100240800002404004002045
:1020000018000048640000208404002060000020C4
:1020100000BFFEE770477047704710B500F002FC44
:1020200010BD00B58FB00120009000040190002089
:10203000029002200790C10308914104099168466B
:10204000FEF758FF08B100BFFEE70F200A900220FC
:102050000B9000200C904FF480600D9000200E90AB
:1020600002210AA8FEF79EFD08B100BFFEE70FB0EF
:1020700000BD00001948006840F47000174908606E
:102080001748006840F0010015490860084640689C
:10209000144908401249486008460068124908403F
:1020A0000F4908600846006820F480200860084650
:1020B000406820F4FE0048600846C06A20F00F0027
:1020C000C8620846006B09490840054908630020BA
:1020D0008860C803014980390860704788ED00E0D6
:1020E000001002400CC07FF8FFFFF6FECCFC00FFA2
:1020F00010B500F00DFB10BD10B50248FFF7B8FD9C
:1021000010BD00000004002010B502681B4B98426F
:1021100002D0B0F1804F03D122F070024B681A4315
:10212000164B98420BD0B0F1804F08D0144B984218
:1021300005D0144B984202D0134B984203D122F49D
:102140004072CB681A4322F080034C6943EA0402D0
:1021500002608B68C3620B688362084B984208D0A8
:10216000074B984205D0074B984202D0064B984245
:1021700001D10B6903630123436110BD002C0140B1
:1021800000400140004401400048014030B501F0EA
:102190001F05012404FA05F3046A9C430462046ADF
:1021A00001F01F0502FA05F52C43046230BD30B57D
:1021B0000C46816821F47F4142EA032525432943E7
:1021C000816030BD0A46816821F0700142F007034A
:1021D00019438160704730B50B461446026A056AA0
:1021E00025F001050562816921F0F00141EA041141
:1021F00022F00A021A438161026230BD70B50C46BA
:102200001546066A26F0010606628169026A104ECA
:10221000B04205D0B0F1804F02D00E4EB04201D195
:10222000012600E000261EB121F00301294301E050
:1022300041F0010121F0F001F02606EA03163143D6
:1022400022F00A0204F00A0632438161026270BD84
:10225000002C01400040014030B50B461446056A91
:1022600025F0100505628169026A21F4704141EA96
:10227000043122F0A00242EA03128161026230BD01
:1022800070B50C461546066A26F01006066281698E
:10229000026A21F4407141EA052121F470414FF4B2
:1022A000704606EA0336314322F0A002A02606EA71
:1022B000041632438161026270BD70B50C4615464A
:1022C000066A26F480760662C169026A21F003017B
:1022D000294321F0F001F02606EA0316314322F4E7
:1022E00020624FF4206606EA04263243C16102628E
:1022F00070BD70B50C461546066A26F48056066217
:10230000C169026A21F4407141EA052121F470415A
:102310004FF4704606EA0336314322F420424FF46C
:10232000204606EA04363243C161026270BD00BF36
:10233000FEE7000002480068C0F30220704700007A
:102340000CED00E010B5002804DB0A07130E054A67
:10235000135406E00A07140E034A00F00F031B1F74
:10236000D45410BD00E400E018ED00E002E008C81D
:10237000121F08C1002AFAD170477047002001E0FF
:1023800001C1121F002AFBD17047000010B5094897
:10239000FEF7B1F90848006800F00800082804D0EA
:1023A00000221146054800F09DF80E2002494860C1
:1023B00010BD00000001002000000240C123000801
:1023C00070B505460E46002422480078012801D148
:1023D000214C01E0204C08341E48007880F00100B8
:1023E0001C4908701D4800210160416000BF13E0D6
:1023F00000200DE0194A52F82020022303FB0103BC
:1024000034F813301A44154B43F82020421CD0B244
:102410000228EFDB481C81B20429E9DB002009E037
:102420000E4951F82010C1F39C010C4A42F82010CB
:10243000411CC8B20228F3DB0948006840B1074AD2
:10244000128891B2054A928890B2054A1268904764
:1024500070BD0000580000209401002048000020BA
:102460004400002008B504E00098818850F8062B4D
:102470009047684600F004F80028F5D008BD000039
:1024800010B5044600BF0E4800880E4909888842EE
:1024900001D1012000E00020012801D1042010BD5D
:1024A00008480088C0EBC000074901EB80002060AD
:1024B0000448008800F00CF8024908800020EEE78C
:1024C0005A0000205C000020B4010020002070476A
:1024D0000146481C142801DD002000E0481C80B2A1
:1024E000704700002DE9F04106460F46154616B923
:1024F0000220BDE8F081142D01DD0520F9E74FF63B
:10250000FF74012080F3108800BF00BF1F480088BF
:10251000FFF7DEFF00F0FF081D480088804501D16D
:10252000012000E0002030B9184804880088FFF737
:10253000CFFF16490880002080F3108800BF4FF6B7
:10254000FF70844201D10320D3E7C4EBC4001149DA
:1025500041F8206005B13FB90020C4EBC4010D4A29
:1025600002EB810188800FE0C4EBC400094901EB54
:1025700080008580C4EBC401064A02EB8101881DFE
:102580002A463946FDF74DFE00BFB2E75A0000204B
:102590005C000020B4010020FEF776FAFFF741FD51
:1025A000FFF794FF00F04AF800F08AF8FFF74AFCC2
:1025B000034800F023F901E0FFF754FFFCE70000B7
:1025C000E127000810B5044622464FF480414FF041
:1025D0009040FEF74DFA10BD10B504464FF400418F
:1025E0004FF09040FEF734FA18B900200F490880E8
:1025F0001AE00E480088B0F5F07F15DB0B48008824
:10260000B0F5027F10DC9FED0A0A00F099F858B18E
:102610000020084908800120FFF7D4FF0648006821
:1026200010B105480068804710BD00002800002058
:102630006666663F2A0000202C00002000B587B0A7
:1026400000BF1D48406940F480201B49486108468E
:10265000406900F48020019000BF00BF102002906C
:102660000120039004900320059002A91348FEF76F
:1026700011F9002210211148FEF7FAF900BF0E48A7
:10268000406940F400300C4948610846406900F454
:102690000030019000BF00BF042002900120039091
:1026A00004900320059002A94FF09040FEF7F2F845
:1026B000002007B000BD00000010024000040048E8
:1026C00010B500F003F8002010BD000000B587B081
:1026D00000BF0E48406940F400300C49486108468C
:1026E000406900F40030019000BF00BF4FF430603B
:1026F000029001200390002004900320059002A97D
:102700004FF09040FEF7C6F807B000BD0010024041
:1027100010B509480068C06800F0010058B16FF0BA
:1027200001000549096808610448006818B10020E3
:1027300002490968884710BDA4000020300000202D
:1027400010B52DED088BB0EE408A9FED210A28EEE2
:10275000000A10EE101A0846FDF703FE41EC1B0BB1
:102760009FED1C0B53EC102BFDF77FFD41EC190B7B
:102770001A490888FDF7E8FD41EC1A0B53EC192BB8
:10278000FDF702FE1DD99FED120A28EE000A10EE99
:10279000101A0846FDF7E5FD41EC1B0B9FED0D0BF4
:1027A00053EC102BFDF761FD41EC190B0B494888E8
:1027B000FDF7CAFD41EC1A0B53EC192BFDF7E4FDB4
:1027C00003D80020BDEC088B10BD0120FAE7000003
:1027D000000080456666666666660A401E00002048
:1027E00010B5044604214FF09040FEF739F910214E
:1027F0000148FEF735F910BD0004004802460021EB
:102800000AE0074850F8210020B9054840F8212087
:1028100000207047481CC1B20829F2DB0320F8E70A
:102820008400002010B500240AE0074850F8240076
:1028300020B1054850F8241000208847601CC4B21D
:10284000082CF2DB10BD0000840000200000000016
:102850000000000001020304060708090000000050
:102860000102030402030405060708090A0B0C0D04
:102870000E0F10100102030405060708090A0B0CCD
:102880000D0E0F10A4280008000000208400000096
:102890006C2300082829000884000020D4090000C7
:1028A0007C23000800127A000000000010000000E5
:1028B0000100000000000000000000000000FF0018
:1028C0000000000000000000000000000000000008
:1028D000000000000000000000FA00005C12000090
:1028E000102700005C120000000000000000000043
:1028F00000000000000000000000000001000000D7
:1029000000000000000000010001000000000000C5
:1029100000000000000000000000000000000000B7
:082920000000000000000000AF
:040000050800018965
:00000001FF
