:020000040800F2
:10000000700A00209D010008C52F0008752E000809
:10001000C12F0008A90500081137000800000000E2
:10002000000000000000000000000000C92F0008D0
:10003000FD05000800000000C72F0008CB2F0008B6
:10004000B7010008B7010008B7010008B7010008B0
:10005000B7010008B7010008FF050008B701000854
:10006000B7010008B7010008B7010008AD05000896
:10007000B7010008B7010008B7010008B701000880
:10008000B7010008B7010008B70100080000000030
:10009000000000000000000000000000B7010008A0
:1000A000B7010008A1300008B7010008B701000837
:1000B000A93000080000000000000000B70100089F
:1000C000B7010008B7010008B701000800000000F0
:1000D000B7010008B7010008B7010008B701000820
:1000E00001060008B7010008000000000000000041
:1000F0000000000000000000000000000000000000
:10010000000000000000000000000000B70100082F
:100110000000000000000000B7010008000000001F
:1001200000000000000000000000000000000000CF
:1001300000000000000000000000000000000000BF
:10014000B7010008B701000800000000000000002F
:10015000000000000000000000000000000000009F
:10016000B7010008B701000800000000000000000F
:10017000000000000000000000000000000000007F
:1001800000000000B7010008DFF80CD000F0A2F872
:1001900000480047753F0008700A00200648804765
:1001A00006480047FEE7FEE7FEE7FEE7FEE7FEE75C
:1001B000FEE7FEE7FEE7FEE72530000889010008BC
:1001C0002DE9F05F0546002092469B46884606468C
:1001D000814640241BE0284641464746224600F01F
:1001E00069F853465A46C01A914110D31146184631
:1001F000224600F050F82D1A67EB01084F462246C0
:100200000120002100F047F817EB00094E41201EA5
:10021000A4F10104DFDC484631462A464346BDE8E6
:10022000F09F40EA01039B0703D009E008C9121FB1
:1002300008C0042AFAD203E011F8013B00F8013BA0
:10024000521EF9D27047D2B201E000F8012B491ECC
:10025000FBD270470022F6E710B513460A46044663
:100260001946FFF7F0FF204610BD30B50B4601469A
:1002700000202022012409E021FA02F59D4205D345
:1002800003FA02F5491B04FA02F52844151EA2F1EF
:100290000102F1DC30BD202A04DB203A00FA02F131
:1002A000002070479140C2F1200320FA03F3194364
:1002B00090407047202A04DB203A21FA02F0002106
:1002C000704721FA02F3D040C2F120029140084366
:1002D00019467047064C074D06E0E06840F0010300
:1002E00094E8070098471034AC42F6D3FFF750FF6C
:1002F000B0480008D04800082DE9F04104460D46FA
:100300000027B84600262068806800F00C0008B17D
:10031000012000E00020002870D02068C06800F0B4
:100320000070B0F1007F1FD1607E01281CD1207EBB
:10033000012819D10C250EE0314886420AD3206CE1
:1003400040F010002064606C40F001006064012007
:10035000BDE8F081761C20680068C0F3801000289A
:10036000EAD0402021680860602D10D020688068A5
:1003700000F0040004280AD12068806800F0020020
:1003800028B92068806840F01000216888600C2D32
:1003900010D02068806800F0080008280AD1206882
:1003A000806800F0020028B92068806840F02000D2
:1003B00021688860602D03D06C2D03D10C2703E0E9
:1003C000082701E0042700BF00BF01F011FA8046B2
:1003D0000FE001F00DFAA0EB08000B2809D9206C02
:1003E00040F010002064606C40F001006064012067
:1003F000AEE72068806838400028EAD10020A7E7EF
:100400000094090070B505466C6A206C00F050003D
:10041000D0B9206C40F4007020642068C06800F4FB
:10042000406068B9607E58B9206C20F48070206408
:10043000206C00F4805018B9206C40F0010020645A
:10044000204600F049FB03E0A06B016B284688477B
:1004500070BD70B505466C6A206C40F040002064A9
:10046000606C40F004006064204600F02BFC70BD1E
:1004700070B50446656A284600F02FFB70BD70B564
:10048000044600252068806800F00300012806D19A
:100490002068006800F0010008B1012000E00020A1
:1004A00080B32068806800F00D00012800D100E0D2
:1004B000002050B100BF2068806840F00200216831
:1004C000886003202168086009E0206C40F010007B
:1004D0002064606C40F001006064012070BD01F098
:1004E00087F905460FE001F083F9401B02280AD97D
:1004F000206C40F010002064606C40F001006064EB
:100500000120EBE705E02068806800F0010000288A
:10051000E9D10020E2E7000070B50446002520681C
:10052000806800F00300012806D12068006800F010
:10053000010008B1012000E0002088BB206880682D
:100540001849084008B9012000E0002048B9206C93
:1005500040F010002064606C40F0010060640120F5
:1005600070BD2068806840F001002168886001F05B
:100570003FF905460EE001F03BF9401B022809D97E
:10058000206C40F010002064606C40F0010060645A
:100590000120E5E72068006800F001000028EAD0AB
:1005A0000020DDE73F00008000BFFEE710B503F04C
:1005B000C9F910BD054A0168891A1422B1FBF2F18C
:1005C0008900016401490839C1637047080002408D
:1005D00030B590F840500124AC40C56B6C600468A5
:1005E00063604468102C04D10468A2600468E16070
:1005F00003E00468A1600468E26030BD70477047A2
:1006000010B50748006800F40040B0F5004F06D16F
:100610004FF4004002490860002003F017FE10BDAF
:100620001404014070472DE9F04104460E460027AE
:1006300000BF94F83C00012802D10220BDE8F081FF
:10064000012084F83C0000BF2046FFF718FF074652
:10065000C7BB012020642068806820F080402168AA
:100660008860012E05D12068806840F080402168B4
:1006700088602068806840F000402168886001F050
:10068000B7F8054611E001F0B3F8401B0A280CD971
:10069000206C20F0020040F01000206400BF002019
:1006A00084F83C0000BF0120C8E72068806800F0A3
:1006B0000040B0F1004FE6D0206C20F0020040F086
:1006C0000100206400BF002084F83C0000BF3846D1
:1006D000B4E70000F0B595B0024600250020009078
:1006E000C868012800D000E000BF00BF92F83C00BD
:1006F000012802D1022015B0F0BD012082F83C0093
:1007000000BF10688068C0F38000002879D1486875
:10071000052812D21068006B0E7906EB46067700AA
:100720001F26BE40B0430F7907EB47077F000E68D6
:10073000BE4030431668306343E048680A2814D24C
:100740001068406B0E79761F06EB460677001F2671
:10075000BE40B0430F797F1F07EB47077F000E684D
:10076000BE403043166870632BE048680F2814D2EF
:100770001068806B0E790A3E06EB460677001F264E
:10078000BE40B0430F790A3F07EB47077F000E6872
:10079000BE4030431668B06313E01068C06B0E793A
:1007A0000F3E06EB460677001F26BE40B0430F798A
:1007B0000F3F07EB47077F000E68BE4030431668C7
:1007C000F0631068806800F00C0008B1012000E0C0
:1007D0000020002870D108680A2813D310688069A7
:1007E0000E780A3E06EB46070726BE40B0430F7858
:1007F0000A3F07EB47078E68BE4030431668B0617A
:1008000010E055E1106840690E7806EB46070726B0
:10081000BE40B0430F7807EB47078E68BE403043B9
:100820001668706148691668F668C6F3C1067600F6
:1008300000FA06F40869012806D0022812D003281D
:100840001ED0042839D129E01068006E9E4E304039
:100850000E784FF0004747EA866626433043166815
:10086000306663E01068406E974E30400E784FF06F
:10087000004747EA8666264330431668706655E0AF
:100880001068806E904E30400E784FF0004747EA77
:100890008666264330431668B06647E01068C06E2F
:1008A000894E30400E784FF0004747EA866626436F
:1008B00030431668F06639E039E01068006E00F0E9
:1008C000F8400E78B0EB866F05D11068006E20F00E
:1008D0000040166830661068406E00F0F8400E78F0
:1008E000B0EB866F05D11068406E20F000401668AE
:1008F00070661068806E00F0F8400E78B0EB866F7E
:1009000005D11068806E20F000401668B06610684F
:10091000C06E00F0F8400E78B0EB866F05D110681D
:10092000C06E20F000401668F06600BF00BF10687F
:10093000806800F00300012806D11068006800F00C
:10094000010008B1012000E00020002876D1C8682D
:1009500001280AD01068D0F8B0000F780126BE40F8
:10096000B0431668C6F8B00032E01068D0F8B000A6
:100970000F780126BE4030431668C6F8B0000868FC
:100980000A2813D3106886690878093800EB4007F5
:100990000720B84026EA00000E78093E06EB46061E
:1009A0008F68B74038431668B06111E0106840693D
:1009B0000E78761C06EB46070726BE40B0430F783C
:1009C0007F1C07EB47078E68BE4030431668706196
:1009D0003E4B0868102803D1986800F4000068B105
:1009E0000868112803D1986800F0807030B1086859
:1009F000122862D1986800F48000F8B900200190B4
:100A00001068806800F00300012806D110680068B3
:100A100000F0010008B1012000E00020C8BB0198EF
:100A200078B10198806800F00300012807D101988F
:100A3000006800F0010010B1012001E031E0002069
:100A400038BB0868102818D11068B0F1A04F14D135
:100A5000986840F4000098601D4800681D4EB0FB87
:100A6000F6F000EB80004000009002E00098401E8D
:100A7000009000980028F9D11FE00868112809D1DA
:100A80001068B0F1A04F05D1986840F08070986070
:100A900013E007E0086812280FD1986840F480003E
:100AA00098600AE0106C40F020001064012504E01A
:100AB000106C40F020001064012500BF002082F877
:100AC0003C0000BF284616E600F0FF8300030050FC
:100AD0000400002040420F007047704770B594B08A
:100AE0000446002514B9012014B070BD206C40F0FC
:100AF000020020646C212046FFF7FEFB054675B915
:100B00002068C06840F400102168C8602046FFF7E4
:100B1000B6FC054615B90120206400E00125002D32
:100B20007ED1206840686FF30A002168486040F277
:100B3000FF70216808602068806820F0E04021682C
:100B400088602068806840F00050216888602068D4
:100B5000C068554908402168C86020684069534909
:100B60000840216848612068806900F07840216869
:100B700088612068006A00F0F0202168086220681F
:100B8000406A00F0FF20216848622068806A00F017
:100B9000FF20216888622068006B45490840216871
:100BA00008632068406B4249103908402168486357
:100BB0002068806B3E4910390840216888632068AE
:100BC000C06B40F2DF7188432168C8632068006E03
:100BD00038490840216808662068406E3549084059
:100BE000216848662068806E32490840216888661E
:100BF0002068C06E2F4908402168C8662068D0F878
:100C0000A0002D4908402168C1F8A0002068D0F854
:100C1000A400294908402168C1F8A400206800E028
:100C20003BE0D0F8B000244908402168C1F8B0008A
:100C30002068D0F8B40020F07F102168C1F8B4001B
:100C40001E4E002000902068806800F003000128FC
:100C500006D12068006800F0010008B1012000E022
:100C60000020A0B9009870B10098806800F00300DF
:100C7000012806D10098006800F0010008B10120A9
:100C800000E0002018B9B0680D490840B060204667
:100C900000F03CF900206064206400BF002084F86C
:100CA0003C0000BF28461FE704800080070000C00A
:100CB000300882E000F0FF030100F8FF000300505D
:100CC000E0103CFE70470000F0B595B004460026E9
:100CD00000250020009014B9012015B0F0BD206956
:100CE00018B12020005D00B100BF206C00F01000A2
:100CF000002853D1206C98BB002060640021E1647F
:100D0000A06484F83C00204600F001F92068806867
:100D100000F0805020BB2046FFF7B1FB0646206C58
:100D200000F01000E0B9DEB9206C20F4885040F0EB
:100D3000020020642068806820F0405021688860AC
:100D40002068806840F08050216888606B480068A7
:100D50006B49B0FBF1F000EB80004000009003E035
:100D600005E00098401E009000980028F9D1206806
:100D7000806800F0805030B12068806800F000503A
:100D8000B0F1005F0AD1206C20F0020040F01000AA
:100D90002064606C40F0010060640126206C00F06B
:100DA000100000287ED1002EFCD120688068C0F39E
:100DB00080000028F6D1206C20F4807040F0020002
:100DC0002064504F002001902068806800F00300EC
:100DD000012806D12068006800F0010008B1012058
:100DE00000E00020B0B9019870B10198806800F06F
:100DF0000300012806D10198006800F0010008B145
:100E0000012000E0002028B9B86820F44030616873
:100E10000843B860606B012802D04FF4805100E0B5
:100E20000021607E41EA4030E1680843A168084340
:100E300005432020005D012813D1607E38B9A08CC5
:100E4000401E4FF4803141EA4040054309E0206CE8
:100E500020F0020040F020002064606C40F00100AF
:100E60006064A06A012803D0D4E90A01084305435D
:100E70002068806800F00C0008B1012000E000202C
:100E800068B92068C06844F2020188432168C860DC
:100E9000207E810394F8300041EA40000543206839
:100EA000C06800E020E01849084028432168C86075
:100EB0002069012809D12068006B20F00F00E1694A
:100EC000491E08432168086305E02068006B20F094
:100ED0000F002168086300206064206C20F002008D
:100EE00040F00100206406E0206C20F0020040F099
:100EF0001000206401263046EFE6000004000020C8
:100F000040420F000003005007C0F0FF70477047D9
:100F10002DE9F04104460D461646002720688068FA
:100F2000C0F38000002865D100BF94F83C00012880
:100F300002D10220BDE8F081012084F83C0000BF0E
:100F40002046FFF7E9FA0746002F4ED1206C40F605
:100F50000161884340F480702064206C20F480108C
:100F600020642068C06800F0007028B1206C20F474
:100F7000005040F480502064206C00F48050B0F5A4
:100F8000805F04D1606C20F00600606401E0002006
:100F9000606400BF002084F83C0000BF1748A16BCC
:100FA00088621748A16BC8621648A16B08631C20B1
:100FB000216808602068406840F01000216848609F
:100FC0002068C06840F001002168C860226802F112
:100FD000400133462A46A06B00F0C7FA20688068BB
:100FE00040F004002168886005E000BF002084F81C
:100FF0003C0000E0022738469CE70000050400089A
:10100000710400085304000870B50446002500BFB1
:1010100094F83C00012801D1022070BD012084F821
:101020003C0000BF6C212046FFF766F9054625BB52
:101030002068C06820F001002168C860A06B00F043
:1010400014FA05461DB1206C40F040002064206871
:10105000406820F010002168486025B92046FFF75D
:101060000EFA054602E02046FFF709FA2DB9206C7A
:1010700020F4885040F00100206400BF002084F874
:101080003C0000BF2846C8E738B50446002524B117
:1010900094F8290000F0100008B1012554E0206AFE
:1010A00000B100BF00BF2948806940F00100274916
:1010B00088610846806900F00100009000BF00BF11
:1010C000204600F045F894F8290010B9002084F873
:1010D00028006068606000BF002000902068006801
:1010E0000090009820F0700061680843009000981C
:1010F00020F00200A16808430090009820F44020EE
:10110000A16908430090009820F47050A18901F46F
:10111000705108430090009820F400402169084372
:10112000009000986169084300900098E1690843C5
:1011300000900098216A0843009000982168086098
:1011400000BF012084F82900284638BD0010024065
:1011500010B586B00446142101A8FFF77BF81749A3
:101160002068884227D100BF1548406940F400300C
:10117000134948610846406900F40030009000BF00
:1011800000BF042001900220029000200390032061
:1011900004900820059001A94FF0904000F034FA27
:1011A00090200190032002900020039001A94FF0AD
:1011B000904000F029FA06B010BD00002000014068
:1011C0000010024010B502460020002122B192F822
:1011D000293003F010030BB1012090E092F8293080
:1011E000012B6FD1464C1368A34201D15B0407E089
:1011F000434C08341368A34201D1DB0600E001230D
:10120000194692F8243003F03003002B6CD092F88A
:10121000243003F0100383B101F001032BB1394BEB
:101220001B680B43374C236017E0364B203B1B6891
:101230000B43344C203C23600FE001F001032BB141
:10124000304B1B688B432F4C236006E02D4B203B1B
:101250001B688B432B4C203C236092F8243003F016
:10126000200393B101F001033BB1264B1B1D1B680A
:101270000B43244C241D236019E0224B1C3B1B68AC
:101280000B43204C1C3C236011E001F001033BB1F7
:101290001C4B1B1D1B688B431A4C241D236006E04E
:1012A000184B1C3B1B688B43164C1C3C236001F005
:1012B000010343B1134B1B1F1B680B43114C241F2D
:1012C000236007E01AE00F4B243B1B680B430D4CD7
:1012D000243C236001F001031BB10A4B0C3319605D
:1012E00002E0084B143B196013681B6843F00103CC
:1012F00014682360022382F8293000E0012010BD29
:10130000200001402804014070B503460024002558
:1013100000BF5879012801D1022070BD0120587109
:1013200000BF022018711868046840F6FE709040F3
:101330008443D1E9000640EA060505FA02F00443B9
:101340001868046018680668C020904086431868D2
:1013500006600120187100BF0020587100BF00BF57
:10136000DBE710B504460CB9012010BD207920B987
:1013700000206071204600F009F802202071002052
:101380002061012020710020EFE7000010B586B039
:101390000446142101A8FEF75DFF16492068884223
:1013A00025D100BF1448C06940F000501249C861FF
:1013B0000846C06900F00050009000BF00BF00BFA9
:1013C0000846406940F4003048610846406900F42E
:1013D0000030009000BF00BF102001900320029059
:1013E0000020039001A94FF0904000F00DF906B0E5
:1013F00010BD0000007400400010024038B50446E3
:10140000002000902068009021B902F10800009DA2
:101410002844009000980360002038BD024600BFB9
:101420005079012801D1022070470120507100BF7E
:10143000022010711068006801238B401843136864
:1014400018601068006800F03C003C2805D1106866
:10145000406840F00100136858600120107100BF1F
:101460000020507100BF00BFDEE7014691F8210067
:10147000022808D00420886300BF002081F82000E3
:1014800000BF012070470868006820F00E000A685D
:1014900010600868006820F001000A68106091F888
:1014A000402001209040CA6B5060012081F821004B
:1014B00000BF002081F8200000BF00BFE2E710B5A8
:1014C00004460CB9012010BD2068006820F001001E
:1014D0002168086000202168086021684860216850
:1014E00088602168C8602046FFF764F894F84010CF
:1014F00001208840E16B48600020A062E062206328
:101500006063A06384F8210000BF84F8200000BF5E
:1015100000BFD8E770B5044600250CB9012070BDA6
:10152000022084F821002068056843F6F0708543A6
:10153000D4E901010843E16808432169084361696E
:101540000843A1690843E169084305432068056031
:101550002046FFF72FF80020A063012084F8210027
:10156000002084F8200000BFD9E72DE9F0410446AF
:101570000D4616461F464FF0000800BF94F82000A5
:10158000012802D10220BDE8F081012084F820006A
:1015900000BF94F8210001282CD1022084F82100FA
:1015A0000020A0632068006820F001002168086026
:1015B0003B46324629462046FFF70AF8E06A30B13A
:1015C0002068006840F00E00216808600BE0206889
:1015D000006840F00A00216808602068006820F078
:1015E0000400216808602068006840F0010021685C
:1015F000086006E000BF002084F8200000BF4FF024
:1016000002084046BFE7000078B503460022C6E066
:10161000012696400D6805EA0604002C72D04D683C
:10162000022D02D04D68122D13D1D60803F12005EA
:1016300055F826005507EE0E0F25B540A84356076E
:10164000F60E0D69B5402843D60803F1200545F88C
:101650002600186856000325B540A8430D7905F00B
:1016600003055600B540284318604D68012D08D089
:101670004D68022D05D04D68112D02D04D68122DF8
:1016800013D1986856000325B540A8435600CD688D
:10169000B54028439860586801259540A8430D79C6
:1016A000C5F30015954028435860D86856000325B7
:1016B000B540A84356008D68B5402843D8604D68B2
:1016C00005F08055B5F1805F68D100BF374DAD6939
:1016D00045F00105354EB5613546AD6905F00105AA
:1016E000009500BF00BF4FEAB635960855F82600B2
:1016F00095072E0F0F25B540A843B3F1904F02D1A7
:10170000002510E04AE02A4DAB4201D101250AE054
:10171000284DAB4201D1022505E0274DAB4201D156
:10172000032500E005259607360FB5402843234DD5
:10173000960845F82600224D2868A0434D6805F418
:101740008035B5F5803F00D120431D4D28602D1D0B
:101750002868A0434D6805F40035B5F5003F00D179
:101760002043174D2D1D28602D1D2868A0434D686E
:1017700005F48015B5F5801F00D12043104D0835C4
:1017800028602D1D2868A0434D6805F40015B5F5A7
:10179000001F00D120430A4D0C352860521C0D68F3
:1017A000D540002D7FF434AF78BD0000001002401A
:1017B0000004004800080048000C004808000140F0
:1017C00000040140024613690B400BB1012000E008
:1017D0000020704742690A4012B10A04826100E0A9
:1017E000816170470AB1816100E081627047000049
:1017F00001480068704700000800002010B5084844
:10180000006840F0100006490860032000F080F8EE
:101810000F2000F007F800F02BF8002010BD0000AA
:101820000020024070B504460E4800784FF47A71EB
:10183000B1FBF0F00C490968B1FBF0F5284600F067
:1018400067FF08B1012070BD102C07D2002221468D
:10185000501E00F01EF80548046001E00120F2E788
:101860000020F0E710000020040000200C00002001
:10187000704701460846002809DB00F01F030122DB
:101880009A4043099B0003F1E023C3F8002100BF05
:1018900070472DE9F05F80460D461646002701F09F
:1018A00049FF074639462A46334601F00700C0F192
:1018B000070ABAF1040F02D94FF0040A01E0C0F19F
:1018C000070AD14600F1040ABAF1070F02D24FF01D
:1018D000000A01E0A0F1030AD4464FF0010A0AFA17
:1018E00009FAAAF1010A0AEA020A0AFA0CFA4FF006
:1018F000010B0BFA0CFBABF1010B0BEA030B4AEAF1
:101900000B042146404601F01DFFBDE8F09F00009A
:1019100000BF00F00702064B19684FF6FF0319409D
:10192000044B0B4343EA0221014B196000BF70478F
:101930000CED00E00000FA0570B504460D460026E7
:101940000CB9012070BDA248006800F00700A84251
:101950000ED29F48006820F0070028439C49086089
:101960000846006800F00700A84201D00120E9E71E
:10197000207800F00200022807D19648406820F045
:10198000F000A168084393494860207800F0010006
:1019900000287CD0606801283BD12020010391FA07
:1019A000A1F1B1FA81F108430121B1EB601F02D12D
:1019B000884800681DE02020010391FAA1F1B1FAE6
:1019C00081F108430221B1EB601F02D18148006A16
:1019D0000FE02020010391FAA1F1B1FA81F108434F
:1019E0000421B1EB601F02D17A48406801E07948D8
:1019F000406A20210A0392FAA2F2B2FA82F211435B
:101A000001F01F0201219140084000287CD10120F3
:101A100098E7606802283BD12020010591FAA1F1E6
:101A2000B1FA81F108430121B1EB601F02D169488D
:101A300000681DE02020010591FAA1F1B1FA81F1C1
:101A400008430221B1EB601F02D16248006A0FE037
:101A50002020010591FAA1F1B1FA81F10843042196
:101A6000B1EB601F02D15B48406801E05948406A11
:101A700020210A0592FAA2F2B2FA82F2114301F091
:101A80001F02012191400840E8BB01205AE758E0BD
:101A90002020022191FAA1F1B1FA81F1084301213C
:101AA000B1EB601F02D14B4800681DE020200221ED
:101AB00091FAA1F1B1FA81F108430221B1EB601F63
:101AC00002D14448006A0FE02020022191FAA1F1DE
:101AD000B1FA81F108430421B1EB601F02D13D4806
:101AE000406801E03B48406A2021022292FAA2F2BB
:101AF000B2FA82F2114301F01F0201219140084025
:101B000008B901201EE7FFE73248406820F00300D3
:101B1000616808432F494860FFF76AFE064608E0FF
:101B2000FFF766FE801B41F28831884201D903200D
:101B300008E72848406800F00C006168B0EB810FAE
:101B4000EED12348006800F00700A8420ED92048D3
:101B5000006820F0070028431D4908600846006817
:101B600000F00700A84201D00120EBE6207800F049
:101B70000400042807D11748406820F4E060E168B9
:101B8000084314494860207800F00800082808D16C
:101B90001048406820F46050216940EAC1000D49B6
:101BA000486000F051F80B49496801F0F001F0225B
:101BB00092FAA2F2B2FA82F2D140074A515CC840CE
:101BC0000649086006480068FFF72CFE0020B9E6C9
:101BD0000020024000100240784800080400002065
:101BE0000C0000200148006870470000040000203D
:101BF00000B5FFF7F7FF0749496801F4E0614FF4CA
:101C0000E06292FAA2F2B2FA82F2D140024A515C48
:101C1000C84000BD001002408848000800B5FFF72A
:101C2000E1FF0749496801F460514FF4605292FAAC
:101C3000A2F2B2FA82F2D140024A515CC84000BD21
:101C400000100240884800082DE9F04100240025DA
:101C500000270026A0461F48446804F00C0078B313
:101C6000042802D008282CD102E0DFF86C802CE098
:101C700004F470104FF4701191FAA1F1B1FA81F1EE
:101C8000C84016490E5C1348C06A00F00F000F21CF
:101C900091FAA1F1B1FA81F1C84011490D5C04F447
:101CA000803040B12A4600230B481946FEF788FAD7
:101CB000A0FB067102E00B48A0FB0671B84604E0E9
:101CC00000E000BFDFF8208000BF00BF4046BDE855
:101CD000F08100000010024000366E0190480008BC
:101CE000A048000800093D0000127A00F8B504463B
:101CF0000CB90120F8BD207800F0010000287BD04D
:101D0000FA48406800F00C0004280CD0F7484068FE
:101D100000F00C00082845D1F448406800F48030F9
:101D2000B0F5803F3ED12020010391FAA1F1B1FA34
:101D300081F108430121B1EB601F02D1EB4800683B
:101D40001DE02020010391FAA1F1B1FA81F10843CD
:101D50000221B1EB601F02D1E448006A0FE02020AD
:101D6000010391FAA1F1B1FA81F108430421B1EB29
:101D7000601F02D1DD48406801E0DC48406A202154
:101D80000A0392FAA2F2B2FA82F2114301F01F02A0
:101D90000121914008400028B1D0606800282BD173
:101DA0000120A7E700BF6068B0F5803F06D1CF48AB
:101DB000006840F48030CD49086029E0606858B977
:101DC000CA48006820F48030C849086008460068A6
:101DD00020F4802008601BE06068B0F5A02F0CD1D3
:101DE000C248006840F48020C04908600846006886
:101DF00040F4803008600BE0A1E0BC48006820F4AB
:101E00008030BA4908600846006820F480200860E5
:101E100000BFB648C06A20F00F00A1680843B3496C
:101E2000C8626068A0B3FFF7E3FC054606E0FFF771
:101E3000DFFC401B642801D903205BE7202001035D
:101E400091FAA1F1B1FA81F108430121B1EB601FD0
:101E500002D1A64800681EE02020010391FAA1F1FA
:101E6000B1FA81F108430221B1EB601F02D19F4812
:101E7000006A10E02020010391FAA1F1B1FA81F18A
:101E800008430421B1EB601F03D19848406802E089
:101E900010E09648406A20210A0392FAA2F2B2FAB0
:101EA00082F2114301F01F020121914008400028F5
:101EB000BDD044E0FFF79CFC054606E0FFF798FC28
:101EC000401B642801D9032014E72020010391FA64
:101ED000A1F1B1FA81F108430121B1EB601F02D1F8
:101EE000824800681DE02020010391FAA1F1B1FAB7
:101EF00081F108430221B1EB601F02D17B48006AE7
:101F00000FE02020010391FAA1F1B1FA81F1084319
:101F10000421B1EB601F02D17448406801E07348AE
:101F2000406A20210A0392FAA2F2B2FA82F2114325
:101F300001F01F020121914008400028BED1207805
:101F400000F0020002285CD16848406800F00C00F4
:101F500050B16648406800F00C00082852D1634830
:101F6000406800F48030E8BB2020022191FAA1F102
:101F7000B1FA81F108430121B1EB601F02D15B4846
:101F800000681DE02020022191FAA1F1B1FA81F14F
:101F900008430221B1EB601F02D15448006A0FE0F0
:101FA0002020022191FAA1F1B1FA81F10843042124
:101FB000B1EB601F02D14D48406801E04B48406AD8
:101FC0002021022292FAA2F2B2FA82F2114301F027
:101FD0001F0201219140084028B12069012802D048
:101FE000012087E60EE04148006820F0F800F82262
:101FF00092FAA2F2B2FA82F26169914008433B4937
:102000000860B1E0206970B3012191FAA1F0B0FA43
:1020100080F0374A42F82010FFF7EAFB054606E059
:10202000FFF7E6FB401B022801D9032062E62020CF
:10203000022191FAA1F1B1FA81F108430121B1EB3A
:10204000601F02D1294800681EE02020022191FA79
:10205000A1F1B1FA81F108430221B1EB601F03D174
:102060002248006A10E02CE02020022191FAA1F120
:10207000B1FA81F108430421B1EB601F02D11B4882
:10208000406801E01948406A2021022292FAA2F237
:10209000B2FA82F2114301F01F020121914008407F
:1020A0000028BDD01148006820F0F800F82292FA0C
:1020B000A2F2B2FA82F26169914008430B490860CA
:1020C00052E00020012191FAA1F1B1FA81F1084A10
:1020D00042F82100FFF78CFB05460BE0FFF788FB79
:1020E000401B022806D9032004E60000001002402D
:1020F000000042422020022191FAA1F1B1FA81F1BF
:1021000008430121B1EB601F02D1FB4800681DE0CC
:102110002020022191FAA1F1B1FA81F108430221B4
:10212000B1EB601F02D1F448006A0FE020200221C9
:1021300091FAA1F1B1FA81F108430421B1EB601FDA
:1021400002D1ED48406801E0EB48406A20210222BC
:1021500092FAA2F2B2FA82F2114301F01F020121B7
:10216000914008400028B9D1207800F008000828E4
:1021700051D1A06980B3012191FAA1F0B0FA80F0A9
:10218000DE4A02EB8000C0F88014FFF731FB054601
:1021900006E0FFF72DFB401B022801D90320A9E52B
:1021A0006020022191FAA1F1B1FA81F108430121E5
:1021B000B1EB601F02D1D04800681EE06020022110
:1021C00091FAA1F1B1FA81F108430221B1EB601F4C
:1021D00003D1C948006A10E01EE06020022191FA94
:1021E000A1F1B1FA81F108430421B1EB601F02D1E2
:1021F000C148406801E0C048406A6021022292FA6A
:10220000A2F2B2FA82F2114301F01F0201219140C1
:1022100008400028BDD04FE00020012191FAA1F133
:10222000B1FA81F1B54A02EB8101C1F88004FFF7F0
:10223000DFFA054606E0FFF7DBFA401B022801D96A
:10224000032057E56020022191FAA1F1B1FA81F152
:1022500008430121B1EB601F02D1A74800681DE0CF
:102260006020022191FAA1F1B1FA81F10843022123
:10227000B1EB601F02D1A048006A0FE0602002218C
:1022800091FAA1F1B1FA81F108430421B1EB601F89
:1022900002D19948406801E09748406A60210222D3
:1022A00092FAA2F2B2FA82F2114301F01F02012166
:1022B000914008400028BED1207800F00400042896
:1022C00073D100278C48C06900F0805070B900BFFE
:1022D0008948C06940F080508749C8610846C06994
:1022E00000F08050009000BF00BF012784480068C4
:1022F00000F48070B0B98248006840F48070804972
:102300000860FFF775FA054606E0FFF771FA401B13
:10231000642801D90320EDE47948006800F4807056
:102320000028F2D000BFE068012806D17248006A98
:1023300040F001007049086227E0E06858B96E4833
:10234000006A20F001006C4908620846006A20F02B
:102350000400086219E0E06805280BD16648006AAD
:1023600040F00400644908620846006A40F0010039
:1023700008620AE06048006A20F001005E490862D5
:102380000846006A20F00400086200BFE068B8B3A5
:10239000FFF72EFA054609E0FFF72AFA401B41F243
:1023A0008831884202D90320A4E48BE04020022136
:1023B00091FAA1F1B1FA81F108430121B1EB601F5B
:1023C00002D14D4800681EE04020022191FAA1F19F
:1023D000B1FA81F108430221B1EB601F02D14648F6
:1023E000006A10E04020022191FAA1F1B1FA81F1D6
:1023F00008430421B1EB601F03D13F48406802E06D
:1024000010E03D48406A4021022292FAA2F2B2FA5C
:1024100082F2114301F01F0201219140084000287F
:10242000BAD046E0FFF7E4F9054608E0FFF7E0F927
:10243000401B41F28831884201D903205AE44020F0
:10244000022191FAA1F1B1FA81F108430121B1EB26
:10245000601F02D1284800681DE04020022191FA47
:10246000A1F1B1FA81F108430221B1EB601F02D161
:102470002148006A0FE04020022191FAA1F1B1FA4F
:1024800081F108430421B1EB601F02D11A48406872
:1024900001E01948406A4021022292FAA2F2B2FAFF
:1024A00082F2114301F01F020121914008400028EF
:1024B000BCD1012F05D11048C06920F080500E49D1
:1024C000C86100BFE069002874D00B48406800F084
:1024D0000C0008286FD0E06902286DD100204FF071
:1024E000807191FAA1F1B1FA81F1044A42F8210018
:1024F000FFF77EF905460CE0001002400000424262
:1025000000700040FFF774F9401B022801D9032036
:1025100047E42020010591FAA1F1B1FA81F10843C5
:102520000121B1EB601F02D1774800681DE0202037
:10253000010591FAA1F1B1FA81F108430221B1EB51
:10254000601F02D17048006A0FE02020010591FA57
:10255000A1F1B1FA81F108430421B1EB601F02D16E
:102560006948406801E06848406A20210A0592FAFB
:10257000A2F2B2FA82F2114301F01F02012191404E
:1025800008400028BED1D4E9081008435E494968D4
:1025900021F4741108435C4948600120010691FA56
:1025A000A1F1B1FA81F1594A42F82100FFF720F96F
:1025B000054609E0A5E092E041E0FFF719F9401B6C
:1025C000022801D9032038E42020010591FAA1F165
:1025D000B1FA81F108430121B1EB601F02D14A48F1
:1025E00000681DE02020010591FAA1F1B1FA81F106
:1025F00008430221B1EB601F02D14348006A0FE09B
:102600002020010591FAA1F1B1FA81F108430421DA
:10261000B1EB601F02D13C48406801E03A48406A93
:1026200020210A0592FAA2F2B2FA82F2114301F0D5
:102630001F020121914008400028BED061E0002027
:102640004FF0807191FAA1F1B1FA81F12F4A42F86D
:102650002100FFF7CDF8054606E0FFF7C9F8401B5B
:10266000022801D903202FE42020010591FAA1F1CD
:10267000B1FA81F108430121B1EB601F02D1224878
:1026800000681DE02020010591FAA1F1B1FA81F165
:1026900008430221B1EB601F02D11B48006A0FE022
:1026A0002020010591FAA1F1B1FA81F1084304213A
:1026B000B1EB601F02D11448406801E01248406A43
:1026C00020210A0592FAA2F2B2FA82F2114301F035
:1026D0001F020121914008400028BED111E0E069AD
:1026E000012800D17DE40848466806F48031206A5C
:1026F000814204D106F47011606A814201D0012048
:102700006FE400206DE4000000100240000042422F
:1027100070B504462546681EB0F1807F01D30120C4
:102720000FE0681E4FF0E02148610F214FF0FF30AD
:1027300001F008F800204FF0E021886107200861CF
:10274000002070BD704770477047000030B50246EA
:102750000B4600BF92F83C00012801D1022030BD99
:10276000012082F83C0000BF022082F83D00106882
:10277000416810688468154D1068A84203D121F49F
:1027800070015868014321F0700118680143106816
:1027900041600E4D1068A84207D01068B0F1804F1C
:1027A00003D00B4D1068A84205D124F0800498682E
:1027B000044310688460012082F83D0000BF0020BF
:1027C00082F83C0000BF00BFC9E70000002C0140B8
:1027D0000040014010B504460CB9012010BD94F82A
:1027E0003D0028B9002084F83C00204600F00CF899
:1027F000022084F83D00211D206800F05DFC0120CE
:1028000084F83D000020E9E710B586B004461421A5
:1028100001A8FDF71FFD2068B0F1804F31D100BF46
:102820001948C06940F001001749C8610846C069ED
:1028300000F00100009000BF00BF00BF08464069E3
:1028400040F4003048610846406900F400300090D0
:1028500000BF00BF082001900220029000200390DA
:10286000032004900120059001A94FF09040FEF74D
:10287000CBFE002201211C20FFF70BF81C20FEF7E5
:10288000F8FF06B010BD00000010024001460868C5
:10289000C06840F001000B68D86008688068084B89
:1028A00000EA0302062A08D0B2F5803F05D0086886
:1028B000006840F001000B681860002070470000BD
:1028C000070001002DE9F04104460D4600BF94F8D1
:1028D0003C00012802D10220BDE8F081012084F8EB
:1028E0003C0000BF022084F83D002068866837481D
:1028F000064026F47F46206886602868502833D03A
:102900000CDC202850D004DC00284BD0102851D1FA
:1029100049E0302849D040284CD139E060282DD0FA
:10292000702807D0B0F5805F03D0B0F5005F41D1CB
:102930000DE040E0D5E902136A68206800F00FFC62
:102940002068866846F077062068866033E0D5E91F
:1029500002136A68206800F002FC2068806840F476
:1029600080402168886026E0EA686968206800F095
:102970000AFC5021206800F0FDFB1CE0EA68696851
:10298000206800F041FC6021206800F0F3FB12E0B9
:10299000EA686968206800F0F6FB4021206800F0D2
:1029A000E9FB08E000BF00BF00BF2968206800F015
:1029B000E1FB00E000BF00BF012084F83D0000BF44
:1029C000002084F83C0000BF00BF85E788FFFEFFC1
:1029D00010B50446207F082816D12168086C0B49E1
:1029E00001F018FA0A480088401C09490880084686
:1029F0000088642801DB002008802068006C0549FD
:102A0000034A128841F8220010BD0000793D0008F9
:102A10005C000020DC0400202DE9F04104460D4656
:102A2000164600BF94F83C00012802D10220BDE800
:102A3000F081012084F83C0000BF022084F83D00B2
:102A400096B9EB68D5E90012206800F0AFFB20686A
:102A5000806920F00C002168886120688069A9687D
:102A60000843216888613DE0042E13D1EB68D5E965
:102A70000012206800F0DCFB2068806920F44060D0
:102A80002168886120688069A96840EA012021687E
:102A9000886127E0082E12D1EB68D5E90012206882
:102AA00000F0E3FB2068C06920F00C002168C861D9
:102AB0002068C069A96808432168C86112E0EB6812
:102AC000D5E90012206800F0ECFB2068C06920F412
:102AD00040602168C8612068C069A96840EA012097
:102AE0002168C861012084F83D0000BF002084F8FF
:102AF0003C0000BF00BF9AE710B504460CB90120A6
:102B000010BD94F83D0028B9002084F83C00204610
:102B100000F00CF8022084F83D00211D206800F030
:102B2000CBFA012084F83D000020E9E7704700005F
:102B300070B504460E4601223146206800F0FEFAC8
:102B400020688068074900EA0105062D08D0B5F520
:102B5000803F05D02068006840F0010021680860CF
:102B6000002070BD0700010070B504460E4636B166
:102B7000042E0BD0082E10D00C2E1CD114E020688F
:102B8000C06840F002002168C86015E02068C06895
:102B900040F004002168C8600EE02068C06840F082
:102BA00008002168C86007E02068C06840F0100095
:102BB0002168C86000E000BF00BF012231462068E4
:102BC00000F0BCFA20688068074900EA0105062D7C
:102BD00008D0B5F5803F05D02068006840F00100BE
:102BE00021680860002070BD0700010010B5044690
:102BF00020680069C0F34000D8B12068C068C0F305
:102C00004000B0B16FF00200216808610120207718
:102C10002068806900F0030018B12046FFF7D8FE55
:102C200005E0204600F0BEF8204600F0BCF8002089
:102C3000207720680069C0F38000D8B12068C068A0
:102C4000C0F38000B0B16FF0040021680861022079
:102C500020772068806900F4407018B12046FFF7A3
:102C6000B7FE05E0204600F09DF8204600F09BF8F6
:102C70000020207720680069C0F3C000D8B1206828
:102C8000C068C0F3C000B0B16FF0080021680861EF
:102C9000042020772068C06900F0030018B12046A6
:102CA000FFF796FE05E0204600F07CF8204600F095
:102CB0007AF80020207720680069C0F30010D8B1AE
:102CC0002068C068C0F30010B0B16FF01000216838
:102CD0000861082020772068C06900F4407018B1AE
:102CE0002046FFF775FE05E0204600F05BF8204621
:102CF00000F059F8002020772068006900F00100FA
:102D000058B12068C06800F0010030B16FF00100D8
:102D100021680861204600F047F820680069C0F388
:102D2000C01058B12068C068C0F3C01030B16FF057
:102D30008000216808612046FFF705FD20680069D2
:102D4000C0F3002058B12068C068C0F3C01030B193
:102D50006FF48070216808612046FFF7F3FC20685B
:102D60000069C0F3801058B12068C068C0F38010BB
:102D700030B16FF0400021680861204600F01CF877
:102D800020680069C0F3401058B12068C068C0F3E3
:102D9000401030B16FF02000216808612046FFF735
:102DA000D3FC10BD7047704702490968491C014AAD
:102DB0001160704758000020704710B504460CB9E8
:102DC000012010BD242060672068006820F0010009
:102DD0002168086000202168086021684860216837
:102DE0008860204600F044F80020E0676067A06734
:102DF00000BF84F8700000BF00BFE2E710B50446D2
:102E00000CB9012010BDA06900B100E000BF606FE7
:102E100028B9002084F87000204600F02AF8242009
:102E200060672068006820F0010021680860204683
:102E300000F008FB012800D1E4E7606A10B12046E9
:102E400000F04DFA2068406820F490402168486006
:102E50002068806820F02A00216888602068006867
:102E600040F0010021680860204600F0B4FAC9E78C
:102E70007047704700BFFEE710B50C480C4908606A
:102E80004020486000210A4881602A21C1604FF437
:102E900000410161002181614162FEF7F5F808B14E
:102EA000FDF7C0FB0248FEF78DF910BD2000014080
:102EB000580400200EB500200090019002901048A8
:102EC000104908600846FEF74CFA08B1FDF7AAFB66
:102ED000002000900190002269460A48FEF714FA8B
:102EE00008B1FDF79FFB40F2ED3300221146054883
:102EF000FEF784FA00210348FEF790FA0EBD0000A9
:102F0000007400408804002000B58BB000200790BA
:102F1000089009900A900490059006900090019006
:102F2000029003904FF080402449086000204860E0
:102F3000002122488160491EC16000210161802179
:102F40008161FFF747FC08B1FDF76CFB4FF480503F
:102F5000079007A91948FFF7B5FC08B1FDF762FB18
:102F60001648FFF7C9FD08B1FDF75CFB002004908F
:102F7000069004A91148FFF7E9FB08B1FDF752FBE1
:102F80000220009001200190002002900320039075
:102F90000C2269460948FFF73FFD08B1FDF742FBE7
:102FA0000C210648FFF7C4FD0C210448FFF7DCFDA7
:102FB0000248FFF76BFC0BB000BD00009C04002032
:102FC00000BFFEE770477047704710B501F040FC46
:102FD00010BD00B58FB001200090000401900020CA
:102FE000029002200790C1030891410409916846AC
:102FF000FEF77CFE08B100BFFEE70F200A9002201A
:103000000B9000200C904FF480600D9000200E90EB
:1030100002210AA8FEF790FC08B100BFFEE70FB03E
:1030200000BD00001948006840F4700017490860AE
:103030001748006840F001001549086008464068DC
:10304000144908401249486008460068124908407F
:103050000F4908600846006820F480200860084690
:10306000406820F4FE0048600846C06A20F00F0067
:10307000C8620846006B09490840054908630020FA
:103080008860C803014980390860704788ED00E016
:10309000001002400CC07FF8FFFFF6FECCFC00FFE2
:1030A00010B501F0B9F910BD10B50248FFF79EFD4B
:1030B00010BD00009C04002010B502681B4B984214
:1030C00002D0B0F1804F03D122F070024B681A4356
:1030D000164B98420BD0B0F1804F08D0144B984259
:1030E00005D0144B984202D0134B984203D122F4DE
:1030F0004072CB681A4322F080034C6943EA040211
:1031000002608B68C3620B688362084B984208D0E8
:10311000074B984205D0074B984202D0064B984285
:1031200001D10B6903630123436110BD002C0140F1
:1031300000400140004401400048014030B501F02A
:103140001F05012404FA05F3046A9C430462046A1F
:1031500001F01F0502FA05F52C43046230BD30B5BD
:103160000C46816821F47F4142EA03252543294327
:10317000816030BD0A46816821F0700142F007038A
:1031800019438160704730B50B461446026A056AE0
:1031900025F001050562816921F0F00141EA041181
:1031A00022F00A021A438161026230BD70B50C46FA
:1031B0001546066A26F0010606628169026A104E0B
:1031C000B04205D0B0F1804F02D00E4EB04201D1D6
:1031D000012600E000261EB121F00301294301E091
:1031E00041F0010121F0F001F02606EA0316314317
:1031F00022F00A0204F00A0632438161026270BDC5
:10320000002C01400040014030B50B461446056AD1
:1032100025F0100505628169026A21F4704141EAD6
:10322000043122F0A00242EA03128161026230BD41
:1032300070B50C461546066A26F0100606628169CE
:10324000026A21F4407141EA052121F470414FF4F2
:10325000704606EA0336314322F0A002A02606EAB1
:10326000041632438161026270BD70B50C4615468A
:10327000066A26F480760662C169026A21F00301BB
:10328000294321F0F001F02606EA0316314322F427
:1032900020624FF4206606EA04263243C1610262CE
:1032A00070BD70B50C461546066A26F48056066257
:1032B000C169026A21F4407141EA052121F470419B
:1032C0004FF4704606EA0336314322F420424FF4AD
:1032D000204606EA04363243C161026270BD90F8AE
:1032E000241001F0010139B10168496821F400316D
:1032F000826A11430268516090F8241001F00201C3
:10330000022907D10168496821F48031C26A11435A
:103310000268516090F8241001F00401042907D1DB
:103320000168496821F48021026B114302685160F1
:1033300090F8241001F00801082907D101684968B4
:1033400021F40041426B11430268516090F824104F
:1033500001F01001102907D10168896821F480511A
:10336000826B11430268916090F8241001F02001F3
:10337000202907D10168896821F40051C26B1143EB
:103380000268916090F8241001F04001402913D1A7
:103390000168496821F48011026C11430268516090
:1033A000016CB1F5801F07D10168496821F4C001A3
:1033B000426C11430268516090F8241001F08001C2
:1033C000802907D10168496821F40021826C1143EA
:1033D00002685160704738B504460020E067FEF788
:1033E00007FA05462068006800F0080008280CD19C
:1033F0006FF07E402B4600224FF4001100902046D3
:1034000000F02CF908B1032038BD2068006800F0F6
:10341000040004280CD16FF07E402B4600224FF4AC
:1034200080010090204600F019F908B10320EBE775
:1034300020206067A06700BF002084F8700000BFF4
:1034400000BFE1E72DE9F04704460027BA462169AD
:10345000A068084361690843E16940EA01082068FF
:1034600000687749084040EA080021680860206841
:10347000406820F44050E168084321684860D4F86F
:103480001880206A40EA08082068806820F43060CC
:1034900040EA08002168886000BF6A4920688842C5
:1034A00016D16948006B00F0030030B1012808D044
:1034B000022808D0032808D101E0002607E00226F0
:1034C00005E0042603E0082601E0102600BF0CE01A
:1034D0005E492068884201D1002606E05C492068E8
:1034E000884201D1002600E0102600BFE069B0F557
:1034F000004F54D1092E3AD2DFE806F005101B39EF
:10350000243939392F00FEF773FB054668006168DE
:1035100000EB5100B0FBF1F087B22BE0FEF77EFB31
:1035200005466800616800EB5100B0FBF1F087B21E
:1035300020E04849606801EB50006168B0FBF1F0A1
:1035400087B217E0FEF780FB05466800616800EB74
:103550005100B0FBF1F087B20CE04FF480316068AD
:1035600001EB50006168B0FBF1F087B202E04FF070
:10357000010A00BF00BF102F0ED3B7F5803F0BD25A
:103580004FF6F07007EA0009C7F3420049EA000964
:103590002068C0F80C904DE04FF0010A4AE0092E77
:1035A0003AD2DFE806F005101B39243939392F00EB
:1035B000FEF71EFB0546606805EB50006168B0FB36
:1035C000F1F087B22BE0FEF729FB0546606805EBBA
:1035D00050006168B0FBF1F087B220E01E496068DE
:1035E00001EB50006168B0FBF1F087B217E0FEF725
:1035F0002BFB0546606805EB50006168B0FBF1F0FD
:1036000087B20CE04FF40041606801EB5000616844
:10361000B0FBF1F087B202E04FF0010A00BF00BF3B
:10362000102F05D3B7F5803F02D22068C76001E0B4
:103630004FF0010A0020206660665046BDE8F08722
:10364000F369FFEF003801400010024000440040E1
:10365000004800400024F40000127A002DE9F041F7
:1036600004460D4617469846069E45E0701C002805
:1036700042D0FEF7BDF8A0EB0800B04200D8B6B9C2
:103680002068006820F4D070216808602068806895
:1036900020F001002168886020206067A06700BFDB
:1036A000002084F8700000BF0320BDE8F08120688E
:1036B000006800F00400F8B12068C069C0F3C020C1
:1036C000D0B14FF40060216808622068006820F4DF
:1036D000D070216808602068806820F001002168AF
:1036E000886020206067A067E06700BF002084F842
:1036F000700000BF0320D8E72068C0692840A842B6
:1037000001D1012000E00020B842AFD00020CCE77A
:1037100000BFFEE70FB4054B10B503A9044A029899
:1037200000F034F810BC5DF814FB0000593F0008AD
:103730006C00002002480068C0F3022070470000BF
:103740000CED00E010B5002804DB0A07130E054A53
:10375000135406E00A07140E034A00F00F031B1F60
:10376000D45410BD00E400E018ED00E002E008C809
:10377000121F08C1002AFAD170477047002001E0EB
:1037800001C1121F002AFBD1704700002DE9FF4F35
:103790008BB09A460F460546002606E025280BD03A
:1037A00052460D9990476D1C761C28780028F5D15B
:1037B0000FB03046BDE8F08F0024A04601226049DA
:1037C00000E0044315F8013F203B02FA03F00842F1
:1037D000F7D128782E2817D115F8010F44F00404EA
:1037E0002A280ED06FF02F022878A0F13001092985
:1037F0000AD808EB880102EB410100EB01086D1CBF
:10380000F2E757F8048B6D1C287869283ED006DC57
:103810000028CDD063280BD0642804D136E073286B
:1038200010D075284BD052460D999047761C85E0F4
:1038300017F8040B8DF8000000208DF80100E94610
:10384000012003E057F8049B4FF0FF3061074FF071
:10385000000401D40AE0641C44450DDA8442FADB1A
:1038600019F804100029F6D106E0641C8442FCDB40
:1038700019F804100029F8D1264404E019F8010BC6
:1038800052460D999047641EF8D257E001CF4FF091
:103890000A0B002802DA40422D2102E0210504D55E
:1038A0002B218DF82410012103E0E10705D0202110
:1038B000F7E70DF1200908910CE00021F9E701CFAD
:1038C0004FF00A0BF9E75946FCF7CFFC01F1300243
:1038D00009F8012D0028F6D1ADEB090000F1200B0D
:1038E000600701D44FF00108D84502DDA8EB0B00BA
:1038F00000E000208046002406E009A85246005D52
:103900000D999047641C761C08988442F5DB04E00E
:10391000302052460D999047761CB8F10001A8F16D
:103920000108F5DC05E019F8010B52460D999047A6
:10393000761CBBF10001ABF1010BF4DC6D1C34E72C
:103940000928010010B50948006800F0080008289F
:1039500004D000221146064800F07EF90548FDF724
:1039600053FB0E200149486010BD000000000240DA
:10397000353B00085801002000B58DB000BF5E48FF
:10398000406940F400305C4948610846406900F4F1
:103990000030019000BF00BF032008900990002074
:1039A0000A9003200B9008A94FF09040FDF72CFEE1
:1039B00000BF5148406940F080504F494861084677
:1039C000406900F08050019000BF00BF0846C06A07
:1039D00020F4F87040F48070C8624FF0A04047496E
:1039E00008600846FDF77AF810B101200DB000BD5F
:1039F0004FF4403041494860002140488160C16037
:103A000001210161042141610021017601214176FA
:103A10000221C161012180F82010416281620021F0
:103A2000C162012180F8301000214163FDF74CF99B
:103A300008B10120DAE700BF2F48406940F00100DB
:103A40002D4948610846406900F00100019000BF1F
:103A500000BF2B482B4908600020486000212948FE
:103A600081608021C16049000161890041610021BC
:103A700081614FF48051C161FDF721FD2148FDF7BF
:103A800049FD00BF1F481D49886308461D4948621B
:103A900000BF002203210B20FDF7FBFE0B20FDF7EA
:103AA000E8FE00211548FCF7BEFD08B101209DE7A6
:103AB00001200290039007200490002005900690BA
:103AC000079002A90D48FCF705FE08B101208DE71B
:103AD00002200290039002A90848FCF7FBFD102287
:103AE00009490648FDF714FA08B101207EE70748A6
:103AF00000F09AFE002079E70010024058010020F3
:103B000008000240A8010020EC010020113B000841
:103B100010B50446102202490248FDF7F9F910BD1C
:103B2000EC010020580100200149086070470000A6
:103B30004000002070B505460E460024224800785B
:103B4000012801D1214C01E0204C08341E480078A6
:103B500080F001001C4908701D480021016041608F
:103B600000BF13E000200DE0194A52F82020022384
:103B700003FB010334F813301A44154B43F820209B
:103B8000421CD0B20228EFDB481C81B20429E9DBD9
:103B9000002009E00E4951F82010C1F39C010C4AA5
:103BA00042F82010411CC8B20228F3DB0948006823
:103BB00040B1074A928891B2054A128890B2054AEC
:103BC0001268904770BD00004C000020EC010020FE
:103BD000440000204000002008B504E000988188DF
:103BE00050F8062B9047684600F004F80028F5D0FE
:103BF00008BD000010B5044600BF0E4800880E49FD
:103C00000988884201D1012000E00020012801D16B
:103C1000042010BD08480088C0EBC000074901EB34
:103C2000800020600448008800F00CF802490880F9
:103C30000020EEE74E000020500000200C02002083
:103C4000002070470146481C142801DD002000E0D8
:103C5000481C80B2704700002DE9F04106460F462F
:103C6000154616B90220BDE8F081142D06DD6B2241
:103C700028A12CA0FFF74EFD0520F4E74FF6FF74B6
:103C8000012080F3108800BF00BF2E480088FFF796
:103C9000D9FF00F0FF082C480088804501D10120A1
:103CA00000E0002030B9274804880088FFF7CAFFE9
:103CB00024490880002080F3108800BF4FF6FF7071
:103CC000844206D1792213A120A0FFF723FD03200F
:103CD000C9E7C4EBC400274941F8206005B13FB9EA
:103CE0000020C4EBC401234A02EB810188800FE06D
:103CF000C4EBC4001F4901EB80008580C4EBC40104
:103D00001C4A02EB8101881D2A463946FCF789FAD4
:103D100000BFA8E76170705F7363686564756C6568
:103D2000720000005B25735D5B6C696E653D256408
:103D30005D3A6172675F73697A65206572720D0A18
:103D4000000000004E000020500000205B25735D45
:103D50005B6C696E653D25645D3A617070207363CC
:103D6000686564756C65722069732066756C6C0D8E
:103D70000A0000000C02002070B5044622480568C5
:103D8000002021490860012D02D92048046070BD3F
:103D90001F48006898B31D490968611A4822B1FBA1
:103DA000F2F044F21111884203D244F22511884204
:103DB00001D803211EE044F25111884203D244F29B
:103DC0006511884201D8042114E044F61661884246
:103DD00003D244F62A61884201D801210AE044F660
:103DE0005661884203D244F66A61884201D80221B2
:103DF00000E000210E46304605490968884703481F
:103E0000046000BFC3E700005800002068000020E5
:103E10005400002070B504460D461C480068201A66
:103E20004821B0FBF1F61A48007801281BD11E2E5C
:103E300007D3222E05D817480078401C1549087072
:103E400002E000201349087012480078122819DB9C
:103E50000020104908700E4908700F4908708DB194
:103E60002046A8470EE00C48007814280ADA0A48D1
:103E70000078401CC0B208490870142802DB0120F9
:103E8000034908700148046070BD00006400002010
:103E9000600000205E0000205F00002008B500F0F8
:103EA00037F800BF1748806940F4804015498861A1
:103EB0000846806900F48040009000BF00BF1248AF
:103EC000124908604FF4E130486000210F488160DA
:103ED000C16001618161082141610021C16100204F
:103EE0000A4948620846FEF768FF0848FEF786FF61
:103EF00006480068006840F001000449096808604D
:103F0000002008BD00100240003801407000002071
:103F100000B587B000BF0E48406940F480200C49CE
:103F200048610846406900F48020019000BF00BF4E
:103F3000402002900220039001200490032005906D
:103F40000720069002A90348FDF75EFB07B000BDFD
:103F50000010024000040048054B1B68188500BF94
:103F6000034A1268D269C2F3C012002AF8D070471F
:103F700070000020FDF742FCFFF72BF8FFF78EFFE3
:103F80007F2218A119A0FFF7C5FB22A3802215A14B
:103F900022A0FFF7BFFB0123812212A128A0FFF777
:103FA000B9FBFFF74DFE00F05BF800F0D1F900F02F
:103FB0001BF900F0C5F800F0A3F900F08DF800F04F
:103FC00013FB00F001FAFFF7D7FCFEF755FFFEF7F1
:103FD00071FFFEF799FF214800F026FC01E0FFF792
:103FE000FBFDFCE76D61696E000000005B25735D01
:103FF0005B6C696E653D25645D3A2A2A2A2A2A206F
:104000006D61696E2072756E202A2A2A2A2A0D0A8D
:1040100000000000564944454F0000005B25735DD9
:104020005B6C696E653D25645D3A70726F6A6563AD
:1040300074206E616D653A2025730D0A0000000042
:104040005B25735D5B6C696E653D25645D3A7665E5
:104050007273696F6E3A2025640D0A00C947000823
:1040600000B587B000BF1148406940F400300F49E7
:1040700048610846406900F40030019000BF00BF6D
:10408000202002900120039004900320059002A9B3
:104090004FF09040FDF7B8FA002220214FF09040F9
:1040A000FDF7A0FB002007B000BD0000001002409B
:1040B00010B50446012C06D1002220214FF090407B
:1040C000FDF790FB07E0022C05D1012220214FF0E3
:1040D0009040FDF787FB10BD00B587B000BF1148C9
:1040E000406940F400300F4948610846406900F4D7
:1040F0000030019000BF00BF88140290012003909F
:1041000004900020059002A90748FDF77DFA0022DF
:104110004FF480514FF09040FDF764FB002007B052
:1041200000BD0000001002400004004810B5044625
:1041300022464FF480514FF09040FDF753FB10BDE5
:1041400000B587B000BF1148406940F400300F4906
:1041500048610846406900F40030019000BF00BF8C
:104160004FF48040029001200390049000200590BD
:1041700002A90748FDF748FA00224FF480414FF0AA
:104180009040FDF72FFB002007B000BD001002405B
:104190000004004810B5044622464FF480414FF019
:1041A0009040FDF71FFB10BD10B504460C48008879
:1041B000401C0B4908800B4800884FF6FF7188426D
:1041C00004DA08480088401C064908800548008831
:1041D000B0F5FA7F02D10020FFF7DCFF10BD000030
:1041E000280000202A00002000B587B000BF144836
:1041F000406940F40030124948610846406900F4C3
:104200000030019000BF00BF4FF4004002900D4805
:104210000390012004900320059002A94FF09040E4
:10422000FDF7F2F9002202212820FDF732FB2820B9
:10423000FDF71FFB044800F0F7FA002007B000BDAF
:104240000010024000003110A941000810B50446DA
:104250004FF400414FF09040FDF7B4FA40B9002010
:1042600010490880392210A111A0FFF753FA18E075
:104270000C480088B0F5E17F05DA0A48008840F272
:10428000262188420DDC00F02BF950B1422206A114
:1042900011A0FFF73FFA0020184908800120FFF71E
:1042A00079FF10BD2800002050494E323500000033
:1042B0005B25735D5B6C696E653D25645D3A4750B7
:1042C000494F5F50494E5F323520697320726573E4
:1042D00065740D0A000000005B25735D5B6C696E00
:1042E000653D25645D3A4750494F5F50494E5F3206
:1042F00035206973207365740D0A00002A000020C0
:1043000000B587B000BF1048406940F480200E49D6
:1043100048610846406900F48020019000BF00BF5A
:10432000102002900120039004900320059002A920
:104330000648FDF769F9002210210448FDF752FAFA
:10434000002007B000BD000000100240000400483B
:1043500000B587B000BF1048406940F480200E4986
:1043600048610846406900F48020019000BF00BF0A
:10437000802002900120039004900320059002A960
:104380000648FDF741F9002280210448FDF72AFA8A
:10439000002007B000BD00000010024000040048EB
:1043A00010B50446012C05D1002280210548FDF7F7
:1043B00019FA06E0022C04D1012280210148FDF700
:1043C00011FA10BD0004004810B500F003F80020F9
:1043D00010BD000000B587B000BF0E48406940F432
:1043E00000300C4948610846406900F400300190F3
:1043F00000BF00BF4FF430600290112003900020F6
:1044000004900320059002A94FF09040FDF7FCF8BE
:1044100007B000BD0010024010B509480068C06830
:1044200000F0010058B16FF001000549096808610A
:104430000448006818B1002002490968884710BD87
:10444000FC0000202C00002070B504460D461948E1
:104450000078012809D118480078FF2804DA1648A6
:104460000078401C1449087070BD1448144909783C
:1044700020F8115013481249097820F811401049CA
:104480000978481C00EBD0714910A0EB41010C4A9F
:1044900011700D480078022804DA0B480078401C9F
:1044A00009490870002211460848FFF7D5FB00BFF4
:1044B000DAE70000120000201300002016000020A0
:1044C000140000201A00002015000020D14400082C
:1044D00070B504460D4600F013F800F095F870BD75
:1044E0000648008840F25D41884203DA034840886C
:1044F000884201DB002070470120FCE720000020FB
:1045000070B50025002601201E4908701E48047859
:10451000002009E01D4931F810100D441C4931F804
:1045200010100E44411C88B2A042F3DB0020154954
:104530000870B5FBF4F017490880B6FBF4F048802A
:1045400008468088098888420ADD12480088114997
:1045500088800846038849220FA111A0FFF7DAF8E6
:104560000C48C0880B49498888420ADD09484088C0
:104570000849C880084643884E2207A111A0FFF7CA
:10458000C9F870BD120000201500002016000020A0
:104590001A000020200000207273736900000000E0
:1045A0005B25735D5B6C696E653D25645D3A727376
:1045B00073695F746F705F6D696E3A2025640D0AD0
:1045C000000000005B25735D5B6C696E653D2564D2
:1045D0005D3A727373695F626F745F6D696E3A20E2
:1045E00025640D0A0000000010B54FF6FF70044965
:1045F0008880C8800348FFF797FA002010BD0000AC
:10460000200000204944000810B51248008840F2FC
:104610005D41884212DB0F48408888420EDB0E481D
:104620000078012815D08F220CA10EA0FFF772F898
:10463000012009490870FFF7B3FE0AE00648007838
:10464000022804D0022004490870FFF7A9FE00F0F8
:104650001BF810BD200000201E000020727373693B
:10466000000000005B25735D5B6C696E653D256431
:104670005D3A766964656F206374726C206279209C
:1046800068770D0A0000000070B52C4804782C48AB
:10469000008840F25D4188420BDB01240020FFF7D7
:1046A00045FD40F2ED33002211462648FCF7A6FEF8
:1046B0002EE02348408840F25D4188420BDB022413
:1046C0000020FFF733FD40F2ED33002211461D4874
:1046D000FCF794FE1CE01A48008819498988401AA2
:1046E00085B2174840881649C988401A86B2B54233
:1046F00001DD012402E0B54200DA02240120FFF7C7
:1047000015FD00231A4619460E48FCF777FE00BF38
:104710000A48007884420FD0022C01D10AA000E0A0
:104720000AA003467D220AA10BA0FEF7F3FF03486F
:1047300004702046FFF7BCFC70BD00001F00002085
:104740002000002088040020424F5400544F5000A5
:1047500072737369000000005B25735D5B6C696EAA
:10476000653D25645D3A766964656F206374726C9B
:104770002062792073772C2073656C3A2025730DA5
:104780000A00000070B504460E4625682B465622E6
:1047900002A104A0FEF7BEFF70BD00006D61696E4E
:1047A000000000005B25735D5B6C696E653D2564F0
:1047B0005D3A7363686564756C65722074657374C3
:1047C0003A2025640D0A000038B5044613480168F4
:1047D0000068401C114A10604FF47A70B1FBF0F28F
:1047E00000FB121060B90D4800684FF47A71B0FBFD
:1047F000F1F00090042269460948FFF72DFA00BF46
:10480000064800684FF4FA71B0FBF1F201FB1200A8
:1048100018B910210348FCF7DDFF38BD0000002067
:104820008547000800040048024600210AE00748C6
:1048300050F8210020B9054840F821200020704799
:10484000481CC1B20329F2DB0320F8E7F000002086
:1048500010B500240AE0074850F8240020B10548AC
:1048600050F8241000208847601CC4B2032CF2DBEF
:1048700010BD0000F000002000000000000000005B
:1048800001020304060708090000000001020304F6
:1048900002030405060708090A0B0C0D0E0F101081
:1048A0000102030405060708090A0B0C0D0E0F1080
:1048B000D048000800000020700000006C3700089D
:1048C0004049000870000020000A00007C37000802
:1048D0000000000000127A0000000000100000003C
:1048E00001000000000000000000000000000000C7
:1048F00000000000000000000000000000000000B8
:1049000000FA00005C120000102700005C1200009A
:104910000000000000000000000000000100000096
:104920000000000000000000000000000000000087
:104930000000000000000000000000000000000077
:040000050800018965
:00000001FF
